:020000040000fa
:080000000002040000000000f2
:020000040000fa
:04000800f6020000fc
:020000040000fa
:04000c00f6020000f8
:020000040000fa
:04001000f6020000f4
:020000040000fa
:04001400f6020000f0
:020000040000fa
:04001800f6020000ec
:020000040000fa
:04001c00f6020000e8
:020000040000fa
:04002000f6020000e4
:020000040000fa
:04002400f6020000e0
:020000040000fa
:04002800f6020000dc
:020000040000fa
:04002c00f6020000d8
:020000040000fa
:04003000f6020000d4
:020000040000fa
:04003400f6020000d0
:020000040000fa
:04003800f6020000cc
:020000040000fa
:04003c00f6020000c8
:020000040000fa
:04004000f6020000c4
:020000040000fa
:04004400f6020000c0
:020000040000fa
:04004800c8020000ea
:020000040000fa
:04004c00f6020000b8
:020000040000fa
:04005000f6020000b4
:020000040000fa
:04005400f6020000b0
:020000040000fa
:04005800f6020000ac
:020000040000fa
:04005c00f6020000a8
:020000040000fa
:04006000f6020000a4
:020000040000fa
:04006400f6020000a0
:020000040000fa
:04006800f60200009c
:020000040000fa
:04006c00f602000098
:020000040000fa
:04007000f602000094
:020000040000fa
:04007400f602000090
:020000040000fa
:04007800f60200008c
:020000040000fa
:04007c00f602000088
:020000040000fa
:04008000f602000084
:020000040000fa
:04008400f602000080
:020000040000fa
:04008800f60200007c
:020000040000fa
:04008c00f602000078
:020000040000fa
:04009000f602000074
:020000040000fa
:04009400f602000070
:020000040000fa
:04009800f60200006c
:020000040000fa
:04009c00f602000068
:020000040000fa
:0400a000f602000064
:020000040000fa
:0400a400f602000060
:020000040000fa
:0400a800f60200005c
:020000040000fa
:0400ac00f602000058
:020000040000fa
:0400b000f602000054
:020000040000fa
:0400b400f602000050
:020000040000fa
:0400b800f60200004c
:020000040000fa
:0400bc00f602000048
:020000040000fa
:0400c000f602000044
:020000040000fa
:0400c400f602000040
:020000040000fa
:0400c800f60200003c
:020000040000fa
:0400cc00f602000038
:020000040000fa
:0400d000f602000034
:020000040000fa
:0400d400f602000030
:020000040000fa
:0400d800f60200002c
:020000040000fa
:0400dc00f602000028
:020000040000fa
:0400e000f602000024
:020000040000fa
:0400e400f602000020
:020000040000fa
:0400e800f60200001c
:020000040000fa
:0400ec00f602000018
:020000040000fa
:0400f000f602000014
:020000040000fa
:0400f400f602000010
:020000040000fa
:0400f800f60200000c
:020000040000fa
:0400fc00f602000008
:020000040000fa
:04010000f602000003
:020000040000fa
:04010400f6020000ff
:020000040000fa
:04010800f6020000fb
:020000040000fa
:04010c00f6020000f7
:020000040000fa
:04011000f6020000f3
:020000040000fa
:04011400f6020000ef
:020000040000fa
:04011800f6020000eb
:020000040000fa
:04011c00f6020000e7
:020000040000fa
:04012000f6020000e3
:020000040000fa
:04012400f6020000df
:020000040000fa
:04012800f6020000db
:020000040000fa
:04012c00f6020000d7
:020000040000fa
:04013000f6020000d3
:020000040000fa
:04013400f6020000cf
:020000040000fa
:04013800f6020000cb
:020000040000fa
:04013c00f6020000c7
:020000040000fa
:04014000f6020000c3
:020000040000fa
:04014400f6020000bf
:020000040000fa
:04014800f6020000bb
:020000040000fa
:04014c00f6020000b7
:020000040000fa
:04015000f6020000b3
:020000040000fa
:04020800f6020000fa
:020000040000fa
:04020c00f6020000f6
:020000040000fa
:04021000f6020000f2
:020000040000fa
:04021400f6020000ee
:020000040000fa
:04021800f6020000ea
:020000040000fa
:04021c00f6020000e6
:020000040000fa
:04022000f6020000e2
:020000040000fa
:04022400f6020000de
:020000040000fa
:04022800f6020000da
:020000040000fa
:04022c00f6020000d6
:020000040000fa
:04023000f6020000d2
:020000040000fa
:04023400f6020000ce
:020000040000fa
:04023800f6020000ca
:020000040000fa
:04023c00f6020000c6
:020000040000fa
:04024000f6020000c2
:020000040000fa
:04024400f6020000be
:020000040000fa
:04024800c8020000e8
:020000040000fa
:04024c00f6020000b6
:020000040000fa
:04025000f6020000b2
:020000040000fa
:04025400f6020000ae
:020000040000fa
:04025800f6020000aa
:020000040000fa
:04025c00f6020000a6
:020000040000fa
:04026000f6020000a2
:020000040000fa
:04026400f60200009e
:020000040000fa
:04026800f60200009a
:020000040000fa
:04026c00f602000096
:020000040000fa
:04027000f602000092
:020000040000fa
:04027400f60200008e
:020000040000fa
:04027800f60200008a
:020000040000fa
:04027c00f602000086
:020000040000fa
:04028000f602000082
:020000040000fa
:04028400f60200007e
:020000040000fa
:04028800f60200007a
:020000040000fa
:04028c00f602000076
:020000040000fa
:04029000f602000072
:020000040000fa
:04029400f60200006e
:020000040000fa
:04029800f60200006a
:020000040000fa
:04029c00f602000066
:020000040000fa
:0402a000f602000062
:020000040000fa
:0402a400f60200005e
:020000040000fa
:0402a800f60200005a
:020000040000fa
:0402ac00f602000056
:020000040000fa
:0402b000f602000052
:020000040000fa
:0402b400f60200004e
:020000040000fa
:0402b800f60200004a
:020000040000fa
:0402bc00f602000046
:020000040000fa
:0402c000f602000042
:020000040000fa
:0402c400f60200003e
:020000040000fa
:0402c800f60200003a
:020000040000fa
:0402cc00f602000036
:020000040000fa
:0402d000f602000032
:020000040000fa
:0402d400f60200002e
:020000040000fa
:0402d800f60200002a
:020000040000fa
:0402dc00f602000026
:020000040000fa
:0402e000f602000022
:020000040000fa
:0402e400f60200001e
:020000040000fa
:0402e800f60200001a
:020000040000fa
:0402ec00f602000016
:020000040000fa
:0402f000f602000012
:020000040000fa
:0402f400f60200000e
:020000040000fa
:0402f800f60200000a
:020000040000fa
:0402fc00f602000006
:020000040000fa
:04030000f602000001
:020000040000fa
:04030400f6020000fd
:020000040000fa
:04030800f6020000f9
:020000040000fa
:04030c00f6020000f5
:020000040000fa
:04031000f6020000f1
:020000040000fa
:04031400f6020000ed
:020000040000fa
:04031800f6020000e9
:020000040000fa
:04031c00f6020000e5
:020000040000fa
:04032000f6020000e1
:020000040000fa
:04032400f6020000dd
:020000040000fa
:04032800f6020000d9
:020000040000fa
:04032c00f6020000d5
:020000040000fa
:04033000f6020000d1
:020000040000fa
:04033400f6020000cd
:020000040000fa
:04033800f6020000c9
:020000040000fa
:04033c00f6020000c5
:020000040000fa
:04034000f6020000c1
:020000040000fa
:04034400f6020000bd
:020000040000fa
:04034800f6020000b9
:020000040000fa
:04034c00f6020000b5
:020000040000fa
:04035000f6020000b1
:020000040000fa
:10040000ef852000cefe20000e01880000000000d5
:10041000000020000000e000020032000001200087
:100420002002880014000700a90007000000e00077
:1004300003003a00003421000100200002003700d0
:100440000000200001002000810f70000100320038
:1004500014000700000020000000e000020032004d
:100460000000020000000000ec110200000000008b
:100470000040da000000fe004440a9000000200017
:100480000000e0000300320000002000a00188000e
:100490004440a800000006008a1f78008b1f7800e7
:1004a0000000060091018800800478000000eb0045
:1004b0001a003700e284440032a0b4009905ba0063
:1004c000e284440032a0b4009906ba00e2844400f9
:1004d00032a0b4000006eb00476fde00fd07b2005b
:1004e000636ce10003003a00ebff07000000eb0043
:1004f0000a003700606ce10004003a00005deb0088
:100500008b05e900fdff3e00040037006168e10053
:10051000010032000086eb000b00070019c7ba008b
:100520001905ba000e04e00003003a000a00e000da
:10053000e0ff3a0000000600fe07b2009e018800be
:100540008a047800f5ff3700395dba008b05e900b1
:100550000c003200295dba008b05e900080032006a
:100560000c00e00003003a00e284440032a0b40032
:10057000f5ff370019ddba008b05e900faff3a00f4
:100580008904e800e184440032a0b40000000600c1
:100590003600f800809fbe00829fbe00849fbe0090
:1005a000869fbe000000fa0010c0b30002e8b7004a
:1005b0006116800000002800008068006016880036
:1005c0000040eb001b080700c04088008500a90020
:1005d0000080fa004f03be004f02be004f01be0074
:1005e0004f00be003600f900004006000040da006f
:1005f0000000fe00889fbe008a9fbe008c9fbe0048
:100600008e1f78004400f800080f200028028800a0
:100610003400f800811f78000f0778002305900050
:1006200007f02f000a38e1000400320027028000a2
:100630004700b30027028800aa01880083049000c5
:1006400043029000d30590000000e90000800800fc
:100650000e00000013049000330590003203780070
:100660004718c10009800800060000005e1cc40095
:100670005210c500071d78009a07cd005310c40022
:100680004618c5004618c4000b00c800b107cd00cd
:100690008e0778004f0078003400f9004400f9001c
:1006a0004f0778004f06be004f05be004f04be0046
:1006b00000000600800090003000900001800800db
:1006c000010000000018eb000018eb00000006001d
:1006d000000005000001be001e0007000470a70016
:1006e00003f0a10003f8a30013003a006509b1006c
:1006f00010003200090035006928e10002003500d1
:100700000100280000000500000040008180480032
:100710008502e900fcff3a0000000600f88f420065
:10072000050035008100d1000080d3008502e8007b
:10073000fcff3a00000006008000eb00000005000e
:100740004f89de00820178007c0337006011b80019
:100750008a033700c70ade00f107b200f50fb200c6
:1007600008003200e1cf4200020032000170a00018
:1007700024000500810f700001003200040805000c
:1007800044000500810f700002003a0014000500cb
:100790008502e9000000400081c04800fcff3b00ea
:1007a0000170a000240005006022b80006022000ad
:1007b0000000d0008180d2000482d2008582d20065
:1007c0000000a0000202520083825a0003003100a0
:1007d0000202420083824a000000a1000603e900f1
:1007e000f3ff3a000000060007f8270007836100c6
:1007f0000638e10004003a00f70720008783610013
:100800008703710001003a0003f0a200889fbe0038
:100810008a9fbe008c9fbe00470ade000480a100b4
:10082000c71ade000580a1000700280007856000c8
:1008300087856100f70f20000720e1009e0032004d
:100840000728e1009c003200010678000400e00067
:10085000b4003200f7072000878060000170a0001c
:100860000500e000c0003200f7072000878161002a
:100870000370a000050652000f003a000b50e10083
:100880000b0032000308e10002003a000200e10020
:100890007e003200020450008384580004003100be
:1008a0000001fd008101fd008402fd008a05fd00bc
:1008b0006044b800210037000520e10005003d003c
:1008c0000001fd008101fd008402fd008a05fd009c
:1008d000050652007a60e100050035000170a100b4
:1008e0004722dd00848070008a807000630037003a
:1008f0006044b800ef02660007ff2f00070666009d
:100900000500e00006003400f08312008714dd00cb
:100910000511de00071bdd00060171008519de00f0
:100920007060e10005003500090478008204780059
:10093000030178008001eb00700656000b50e100c7
:1009400003003a00020040008380480004003700a2
:1009500060041400e0841c000200580083805800ea
:100960000188a300060032008100d1000080d3007e
:100970008984d3000884d3000402e80027003700ec
:100980000178a30025003a000100e00003003200d6
:100990008186cf00698656000a0037008c0020004f
:1009a0000000e00004003a000900780088047800a4
:1009b0000004eb00700252008086cf000d06460056
:1009c0000c06e9007060e100060035008000780048
:1009d00009007800880478000004eb0070065600d7
:1009e000700252000c00e0000c0034008c08dd00a6
:1009f000f00316000703de00868070000c00dd00a7
:100a0000074bde00060070008c4cdd000743de0063
:100a1000868474000c44dd000c0252006120e10069
:100a20002000350061016000070028008781640014
:100a3000f7ff270087836400070374000300e000ca
:100a40000600320082037300040032000000e80058
:100a5000e08048000188a3000e003a00f70f200054
:100a60000720e1004a003d000170a1004722dd009f
:100a7000810072008a8070000000be004f06be0038
:100a80004f05be004f04be00000006006000b80025
:100a9000faff37008100d1000080d3000402e80093
:100aa000eeff37000401780089017400a1010700fe
:100ab0008a807000f1ff3700f70107000702780015
:100ac0000001fd008101fd00f301070087027800ad
:100ad000850372000778a300040032000001fd00c6
:100ae0008101fd0006020700e4ff37008503620074
:100af0000768a300080032000b50e1000300320039
:100b0000f0ff2f00f1ff2700dcff37000001fd00a0
:100b10008101fd00d9ff37000468a300d7ff320030
:100b2000faff3700f8ff2700888360000b003a00c7
:100b30000000e00009003a00830364008283730030
:100b4000020032000200be00ccff37000b50e10073
:100b5000ceff3a000200be00c8ff3700140020009c
:100b6000810064003eff3700f8ff270088836100a2
:100b700004003a000200e00002003a008c00780015
:100b8000beff3700150020008301640039ff3700e5
:100b900001f827000000200081007500b7ff370032
:100ba000889fbe008a9fbe008c9fbe001b00200055
:100bb0000202be00058668000600280006066600e0
:100bc0004709de00f20fb200820032000243e80063
:100bd00080003200c729de00f30fb2007d00320032
:100be0000343e8007b003200f107b2000170a0006f
:100bf000f507b2000570a000c708dd004903de005c
:100c0000868070004700dd00c72add004923de0032
:100c1000868272004722dd00030551000403500064
:100c200085835800030031000000400081804800a7
:100c30000a05e9008c1f78008a9fbe00040050005e
:100c4000858058000402420085824a00000040006e
:100c5000818048000005eb000004be006033b8004e
:100c60000406be000d48e1005600310011000900e5
:100c70004dccd8000c01b8000d02b80084814100b1
:100c800060824a008283530003045c0084845c0019
:100c900060055d000a00e00025003a00800578004c
:100ca0000d40e1004900310088007800070078001d
:100cb000110009004d88d8000c01b8000d02b800e1
:100cc0008481410060824a006003110083835b00dd
:100cd00004045c00e0845c000900e00021003a00ac
:100ce0004f01be000300e0002b003200e301600072
:100cf000070673008c8171000100320064007000ef
:100d00004200de004e5edd000c007000c258de00c6
:100d100001e0a00083010700cf017800818071000d
:100d20004f06be004f05be004f04be000000060087
:100d30008c8343000d044c00e0844c0060054d00a2
:100d40000000e9000a00e000d4ff32008c83430079
:100d50000d044c00e0844c0060054d000000e900eb
:100d6000ceff37000c0343008d834b0060044c0022
:100d7000e0844c000000e9000900e000d8ff3200e8
:100d80000c0343008d834b0060044c00e0844c0056
:100d90000000e900d2ff37004200de004e5edd00b9
:100da0000c007000c258de0001e0a000cf01780006
:100db0000300e000daff320060001000e08018005d
:100dc000d7ff3700f0ff2f00aaff3700f0ff2f00fa
:100dd000b9ff37000404be002f0107008706780022
:100de0000004fd008104fd002b010700078366005d
:100df0000678a300030032000960a7000800be00c7
:100e00002c0037000d78a300020032000800be005d
:100e1000280037000778a30026003a0001f0a1005f
:100e200009f0a1000668a30003003200f1ff2700cb
:100e3000f0ff2f00baff37000d68a3000300320057
:100e40000800be008c807000b5ff37000768a30063
:100e500007003a000648a30003003200f1ff270014
:100e6000f0ff2f00aeff37000d48a3000300320053
:100e70006000b8008c807000a9ff37000748a3000d
:100e80000400320001f82700000020008c80700070
:100e9000a3ff3700760107000004fd008104fd0078
:100ea00002057800720107000802be008a0178007e
:100eb00059ff37000160a000120220003242880072
:100ec00097ff37000100e000120032000500e0004b
:100ed00010003200889fbe008a9fbe008c9fbe001b
:100ee0000006eb0001f8a3000300320060001000d0
:100ef000e08018000cf0a00005f8a3000300320009
:100f000060021200e0821a000cf0a2008005eb00e3
:100f100041ff37006000b80002000500038368004d
:100f20000700280007036300470ade000480a100d1
:100f3000c71ade000580a100f70f20000720e1009e
:100f4000420032000728e10040003200889fbe00c6
:100f50008a9fbe008c1f7800f107b200f307b20031
:100f60000400e000640032000170a0000500e00011
:100f7000680032000370a00085054200eb07b10055
:100f80000204b8000302b8008484440060854a006b
:100f9000020ab800848444000a854a00030ab800a3
:100fa00004054500040033000804d0008984d20001
:100fb0000a85d2008b05e9006158e1003d0035004b
:100fc00002102000090161000308200089816100ee
:100fd000f70720008783640008867300c84cde0092
:100fe000c853dd00878474004855de000300e0002c
:100ff0000600320082037600040032008904e80013
:1010000060054d000a88a3000c003a00f70f20008d
:101010000758e10044003d000a70a100c75ddd00f3
:101020000a8575008a007300090078004f06780071
:101030004f05be004f04be00000006000a05d100a7
:101040008984d3008b05e800f0ff3700881f780003
:101050000604780090000700070278000001fd00f8
:101060008101fd008c000700870278008503720073
:101070000778a300050032000001fd008101fd009a
:101080009f0007004f0478000000060085037200ef
:101090000748a30003003200f0ff2f00f1ff2700f4
:1010a000f8ff37000000200001f82700888070005a
:1010b000f4ff3700880178004848dd008081710026
:1010c0004848de00c850dd0001007000c850de0056
:1010d000060478000b017800160007008880700075
:1010e000d2ff37000500e0000500320017002000a5
:1010f0003a0007009dff370081037000f9ff3a00b6
:10110000860078004f0678004f05be004f04be00f1
:101110000000050083037100f9ff32002700200062
:101120002e00070094ff370001f82700868070002a
:10113000f4ff37000100e0002600320061011100d9
:101140007810e10023003c006022b8007010e1003c
:101150000400350080027800010078008000eb0078
:10116000700151000200e00009003400700311001a
:10117000062add00822ade008603dd0087827200f7
:101180000200de00860bdd00070070008208de0032
:1011900084817100f4ff2700048262008481710061
:1011a00004002800848262006102600005f0a6004d
:1011b0000000060004827100070032000000e80011
:1011c000e0804800000006000002be006000b80099
:1011d000efff37006000b80000000600889fbe00e7
:1011e0000004eb006138e10016003a000100e00065
:1011f00008003a00c800de004800dd00880020003a
:101200000100e00003003a00c800de004800dd00f5
:10121000680444008184cf00e9845400060034004f
:101220008908dd00f08314008703de0087807000ea
:101230000900dd0009044400610214004f04be00ef
:10124000000006000300e00008003a00c811de00bc
:101250004811dd00880020000300e00003003a0090
:10126000c811de004811dd00680444008384cf000b
:10127000e9845400060034008919dd00f08314006d
:101280008713de00878171000911dd000904440025
:10129000e1021400e9ff37002700200001f0a70059
:1012a00017002000470bde00f60fb20004003200ea
:1012b0000643e8000a0032004702b30000000600bf
:1012c00001037800f607b2000603700002003a003e
:1012d0000703b300000006008702b3000000060009
:1012e00001037800f607b200060370000200320026
:1012f0000770a000000006000760a00000000600c4
:101300000478a300040032000578a3000300320033
:101310000168a30001003a000200be000160a000c5
:101320000000060081017000270032008002eb00ff
:1013300001f8a3000300320060001000e0801800f4
:1013400015002000f40720000202420020003400b3
:10135000f7032000870360000604200000036300f9
:1013600002082000000161004700de00c909dd001d
:1013700000807100c708de000600e00008003200af
:1013800087037100060032001000b0000180b00039
:101390000188a30002003200c108de000402e80058
:1013a000f107b200f30f20000320e10003003d002d
:1013b0004722dd00810072002900370001f8270074
:1013c0000000eb00260037006000b80000000600b7
:1013d000680212007f20e100020034006000b800c3
:1013e0001f0037006011b8007020e10004003500d4
:1013f00080017800010078008000eb00700252004c
:101400000400e00009003400f00312000719dd00b9
:101410008419de000703dd00868171000400de0010
:10142000070bdd00060070008408de00f7ff2700d0
:1014300083836300870371000600280003036300b1
:10144000070032000700e00003003a00610160007d
:1014500002817300020032001000b0000180b00071
:101460000500a6000000060001f0a0000000060034
:101470004f0ade004709de00f107b200f20fb200aa
:101480000b003200f207b1000170a000c708dd00b8
:10149000c901de00838070004700dd000400a60063
:1014a0000000060060001000e08018000000060048
:1014b000810f700001003a00000006008182cf0019
:1014c0000500e00010003e008082cf00ee82420066
:1014d0007028e1000400390007003e008000780019
:1014e0000000eb000e003700708312008600de0063
:1014f0000500dd000a003700708352008600dd0021
:101500000000eb0006003700e28252008508dd0093
:10151000708312000603de00868070000500dd0087
:101520007507b0000501ea000400a60000000600ef
:1015300060001000e080180000000600881f78009e
:10154000030478000300e00007003d006000100085
:10155000e080180060011900e081190002003b00e2
:1015600001f02d00030037000400070008f0a70079
:1015700001f0a0004f04780000000600889fbe0024
:101580008a9fbe0000827000040271000482710014
:10159000260032000004be000200be006011b80048
:1015a0006b092000950220000182cf000a0039005b
:1015b0000541b1000082cf00070039000541b100ac
:1015c0000982cf00040039000541b1000882cf0034
:1015d000010039000541b1000542520012003200fd
:1015e0000a003b0082817100610164008100d1002a
:1015f0000080d3008984d3000884d3008b05e800e1
:101600000442e800f7ff3a000700370008044400ee
:1016100089844c0000004800818048008b05e90067
:101620000442e900f9ff3a00030007004f05be003d
:101630004f04be00000006008100200061805500bc
:101640000b003d000b00200061fe2f000100e100b7
:101650001d00340082817100610164008904d100a1
:101660000884d3000000e800faff3a00710020006f
:101670006100640003007000020060000900320095
:1016800061044400e0844c000988a5000500320094
:101690008b05e8006808e10002003a008904d100e7
:1016a0000884d300f20f20000258e10005003d003d
:1016b000c75ddd00f907b200898075000800780079
:1016c000000006000bf827008b00780000000500e2
:020000040000fa
:1016d0000e00fa00889fbe00e4024700804a7800ae
:1016e0006600470001087800680047000288be00d5
:1016f0006c004700044878006c0047009040780078
:1017000000c4b30080cf500002003a002000200047
:10171000000f78006c00470010407800e84f500040
:1017200002003a0010002000000f78006c00470013
:1017300010407800e14f500002003a000000eb003a
:10174000000f780064004700104078000080fb0024
:10175000e10f500034003200e20f5000620032000e
:101760000000e00090003a0005e1a9000421a90072
:1017700004c1a9001e0078000040780063406000aa
:101780000080fb00630060004400dd002208800050
:10179000f1fc2f008100610001007000200888002a
:1017a000680047000268290083a924001000be00d9
:1017b000dafd07000004be006c004700104078000e
:1017c0000080fb00cf80de00ddfb07000001be00d3
:1017d0000800be00f2fc0700befb07000000780016
:1017e0008000e9000e80e800010878000e80e80023
:1017f000900078001108880066004700900078008b
:10180000010888009460a8008460a9002105800078
:10181000f0ff28000080600000c0a00020058800c4
:1018200005e1a8006000370011e1a9001021a9001e
:1018300010c1a9001e0078000040780063406000dd
:101840000080fb00630060004400dd00820880002f
:10185000f1fc2f0081006100010070008008880009
:10186000680047000268290083a924001000be0018
:10187000aafd07000004be006c004700104078007d
:101880000080fb00cf80de00adfb07000001be0042
:101890000800be00c2fc07008efb070000007800b5
:1018a0008000e9000e80e800010878000e80e80062
:1018b000900078006108880066004700900078007a
:1018c0003108880094e0a80084e0a9003105800078
:1018d000f0ff28000080600000d0a00030058800e4
:1018e00011e1a8003000370013e1a9001221a9007e
:1018f00012c1a9001e00780000407800634060001b
:101900000080fb00630060004400dd00920880005e
:10191000f1fc2f0081006100010070009008880038
:10192000680047000268290083a924001000be0057
:101930007afd07000004be006c00470010407800ec
:101940000080fb00cf80de007dfb07000001be00b1
:101950000800be0092fc07005efb07000000780054
:101960008000e9000e80e800010878000e80e800a1
:1019700090007800710888006600470090007800a9
:10198000510888009500a8008500a9004105800045
:1019900080ff2f00008060003000b3004005880009
:1019a00013e1a800000000004f04be000080fa0010
:1019b000000006000a00fa000e82e800004a7800e3
:1019c00064004700010878006600470002087800bc
:1019d000680047000348780068004700904078009e
:1019e00000c4b30080cf500002003a002000200065
:1019f000000f78006800470010407800e84f500062
:101a000002003a0010002000000f78006800470034
:101a100010407800e14f500002003a000000eb0057
:101a2000000f78000e80e800104078000080fb0076
:101a3000e10f500003003200e20f50002600320098
:101a40004b00370011e1a9001021a80040168000ca
:101a500000f0a000401688003134800000fe2f0006
:101a600000806000f000b300303488001e00780071
:101a700000407800634060000080fb00630060006d
:101a80004400dd0082088000f1fc2f00810061002d
:101a90000100700080088800660047009000780010
:101aa000610888000e80e800104078000080fb008c
:101ab0003008880094e0a80084e0a9003105800087
:101ac000f0ff28000080600000d0a00030058800f2
:101ad00011e1a8002600370013e1a9001221a80097
:101ae0004016800000e0a0004016880031348000dd
:101af000f00f2e008080600000f0200001007000d8
:101b0000303488001e007800004078006340600098
:101b10000080fb00630060004400dd00920880004c
:101b2000f1fc2f0081006100010070009008880026
:101b30006600470090007800710888000e80e80079
:101b4000104078000080fb00500888009500a80035
:101b50008500a9004105800080ff2f000080600003
:101b60003000b3004005880013e1a8000000000029
:101b70000080fa00000006000e00fa00889fbe00f8
:101b8000e4024700804a78006600470001087800b8
:101b9000680047000288be006c00470004487800d7
:101ba0006c0047009040780000c4b30080cf500024
:101bb00002003a0020002000000f78006c0047006f
:101bc00010407800e84f500002003a00100020005a
:101bd000000f78006c00470010407800e14f500083
:101be00002003a000000eb00000f7800640047009c
:101bf000104078000080fb00e10f5000030032002d
:101c0000e20f50003a0032007300370011e1a900e2
:101c10001021a90010c1a8004016800000f0a0000b
:101c2000401688003134800000fe2f0000806000e4
:101c3000f000b300303488001e00780000407800c7
:101c4000634060000080fb00630060004400dd0032
:101c500082088000f1fc2f0081006100010070000b
:101c600080088800680047000268290083a92400d2
:101c70001000be00a9fc07000004be006c00470075
:101c8000104078000080fb00cf80de00acfa070037
:101c90000001be000800be00c1fb07008dfa07006e
:101ca000000078008000e9000e80e800010878005c
:101cb0000e80e8009000780061088800640047000a
:101cc000104078000080fb003008880094e0a800f5
:101cd00084e0a90031058000f0ff2800008060004a
:101ce00000d0a0003005880011e1a8003a003700bc
:101cf00013e1a9001221a90012c1a800401680001a
:101d000000e0a0004016880031348000f00f2e0063
:101d10008080600000f020000100700030348800f6
:101d20001e00780000407800634060000080fb00e7
:101d3000630060004400dd0092088000f1fc2f0089
:101d40008100610001007000900888006800470071
:101d50000268290083a924001000be006ffc070060
:101d60000004be006c004700104078000080fb00bb
:101d7000cf80de0072fa07000001be000800be003e
:101d800087fb070053fa0700000078008000e90095
:101d90000e80e800010878000e80e80090007800ce
:101da0007108880064004700104078000080fb0044
:101db000500888009500a8008500a9004105800012
:101dc00080ff2f00008060003000b30040058800d5
:101dd00013e1a800000000004f04be000080fa00dc
:101de000000006000200fa00004f78001e80fb0091
:101df000e10f50001d003200e20f500039003200a8
:101e00000000e00057003a0011e1a90013e1a90029
:101e10001061a8001021a90010c1a900810880004c
:101e2000f0fc2f00008060000040a00080088800c7
:101e30000621ef000a21ef00f0052000700888005d
:101e400000e12500600888009500a8008500a90031
:101e50004105800080ff2f00008060003000b3004b
:101e60004005880011e1a8003e00370011e1a900fb
:101e700013e1a9001061a8001021a80081088000ca
:101e8000f0fc2f0000806000800888004016800071
:101e900000f0a000401688003134800000fe2f00c2
:101ea00000806000f000b300303488000621ef00ad
:101eb0000a21ef000e21ef0050002000600888008a
:101ec0009500a8008500a9004105800080ff2f0033
:101ed000008060003000b3004005880011e1a800d8
:101ee0002000370011e1a90013e1a9001061a8004a
:101ef0001021a90010c1a80081088000f0fc2f006b
:101f0000008060000050a00080088800401680001b
:101f100000f0a000401688003134800000fe2f0041
:101f200000806000f000b300303488000621ef002c
:101f30000a21ef000e21ef0010f420006008880055
:101f40009500a8008500a9004105800080ff2f00b2
:101f5000008060003000b3004005880011e1a80057
:101f6000000000000080fa00000006000a00fa00ed
:101f7000889fbe00e80047008008780090952d00fb
:101f800001402300008fbe00680047001000780069
:101f90008000eb000001be0080382100010020001d
:101fa00001fa0700e9f907000004be0002682900f1
:101fb00083a924001e00be00d8fb07000001be005c
:101fc0000800be0008fa07000200200003002400f9
:101fd00005fa0700640147000089be00640047005d
:101fe0001000be00bbf90700004078000080fb0035
:101ff000201088000762a90007e2a8004f04be0075
:102000000080fa00000006000000fa000602a800a6
:102010000000000030108000610060000000e0005f
:10202000fcff3a000080fa00000006000000fa0001
:102030000622a8000000000030108000620060004e
:102040000000e000fcff3a000080fa0000000600fb
:102050000200fa00004f78001e80fb00101088007c
:10206000000000004110800000002400008060009b
:102070000000e000fbff3a000080fa0000000600cc
:102080000200fa00004f78000e00e80001487800d6
:102090009e80fb00e00f2000808060000e00e800c2
:1020a000104078000080fb006100600001007000bb
:1020b0001010880000000000411080000000240083
:1020c000008060000000e000fbff3a000080fa00a2
:1020d000000006000400fa00000f78000e80e800ff
:1020e000014878000682a9000662a8000e80e80078
:1020f000104078000004e00011003a0000000000e9
:1021000030108000680060000000e000fcff3a0032
:1021100000108000004078009e0078008048780021
:1021200006a2a9000682a80000000000301080006e
:10213000700060000000e000fcff3a00140037006f
:102140000e80e80010407800e14f500010003a0087
:102150000000000030108000680060000000e00017
:10216000fcff3a0000108000004078009e007800dc
:102170008048780006a2a8000682a800000000009f
:1021800030108000700060000000e000fcff3a00aa
:102190000080fa00000006000000fa000642a800d5
:1021a0000000000030108000640060000000e000cb
:1021b000fcff3a000080fa00000006000800fa0068
:1021c000008fbe00640047000248780065004700a9
:1021d00003487800660047000448780040168000f5
:1021e0000060a100401688003136800000fe2f00fc
:1021f000008060003000b300303688004016800058
:102200000070a000401688002135800000fe2f00dd
:10221000008060007000b3002035880021e2a90032
:1022200064004700104078000080fb0061006000ff
:10223000011180000100a100010070000011880060
:102240006500470010407800634060000080fb009c
:1022500063006000000040000211800091ff2f0029
:102260008100610001007000001188001e01be00a5
:10227000404b2c00410020004bf907000000780083
:102280000000e900401188002342a80011118000dd
:10229000f0f32f0000806000101188008560a90015
:1022a0009560a80066004700104078006740600015
:1022b0000080fb00670060004c00dd0042058000ec
:1022c000f1ff2800810061000100700040058800d6
:1022d00021e2a8000080fa00000006000200fa00d7
:1022e000004f780000000000111180000020200045
:1022f000008060000000e000fbff3a001e00fb00d1
:10230000201188000080fa00000006000400fa0096
:102310008e80e800800878000e80e800100f7800ba
:10232000040037001e007800104078001e0fe800ff
:10233000eaff07001e007800104078000004e0006b
:10234000f8ff3a000080fa00000006000400fa00de
:10235000000f78000e80e800010878000080fa0085
:10236000000006000800fa008e81e800800978006d
:102370006400470001087800660047000208780002
:102380000000eb00000f78000a00370064004700ef
:102390001000780010407800e400470091007800b9
:1023a0000101e800e400470082087800cbff070045
:1023b0001e0fe8009e0078006600470010007800bd
:1023c000808f5000f1ff3900660047001000780050
:1023d0000080fa00000006000800fa0064014700cf
:1023e000000978006600470001087800c9e2a900ea
:1023f00010c0b3005200070014c0b3008041eb00ce
:102400000041eb0000582200010020006bff070094
:1024100014c0b300a2702d0033ca23008000eb006b
:1024200020c0b300aafc070040062000cffe070032
:102430000000eb00000f780000802000000f780003
:10244000208520009bf807004268ef000a00370053
:1024500042c8bf000080fb00800040004080200098
:10246000008040008000eb000108780042c8bf00f7
:102470000040e80042e8b70042c8bf00e94f500002
:10248000f3ff36004268ef000a00370042c8bf0081
:102490000080fb00c200dd00a08120000081400020
:1024a0006000b8000089be0042c8bf000040e800dc
:1024b00042e8b70042c8bf00e94f5000f3ff3600c2
:1024c000010037000000000002c8bf000004e00067
:1024d000fcff32008081200023852000000178006d
:1024e000018020001000200042f807001e00e800d4
:1024f000904078000e80e800014878001e007800c7
:10250000904078006300470001487800befe070055
:1025100000ccb300cefe07000e80e800104078002b
:102520006f406000cafe070063004700104078005b
:10253000c7fe070018ff07000268ef00e2ff370040
:102540000200fa00004f78001e80fb00e10f5000ef
:102550001b00320021e3a9002143a90001198000da
:10256000f0cf2f0000806000001988000119800062
:10257000f0f12f00008060000060a00000198800ca
:102580002023a9002043a80011198000f0ff21009a
:10259000008060001019880011198000f0cf2f0012
:1025a000008060001019880028e3a90025e3a90035
:1025b00010c0b30024e3b70021e3a8001b003700dc
:1025c00021e3a9002143a80001198000f0cf2f00ca
:1025d000008060000019880001198000f0f12f00d0
:1025e000008060000060a000001988002043a9005e
:1025f0002023a90011198000f0ff21000080600055
:102600001019880011198000f0cf2f0000806000a1
:102610001019880028e3a90025e3a90020c0b30011
:1026200024e3b70021e3a800000000000080fa00c6
:10263000000006000200fa00004f78009e4078007b
:102640007fc060000080fb007f00600042198000b6
:1026500001fe2f0081006100010070004019880018
:102660000000000000198000610060000000e00030
:10267000fcff3200001880000080fa000000060015
:020000040000fa
:10268000520800000c00000002000000000048009a
:102690000800ff00fc0ffe000f00000048080000cb
:1026a0000a00000002000000ff7fff007f008000a2
:1026b000ff7f1e0075000000fc0f000004000000fa
:1026c00000000000000800004600000000000000bc
:1026d00046080000020000000000000000000000aa
:020000040000fa
:0200000401f009
:04000000ffffff00ff
:020000040000fa
:0200000401f009
:04000800ffffff00f7
:020000040000fa
:0200000401f009
:04000c0002000000ee
:020000040000fa
:0200000401f009
:04001000a500000047
:020000040000fa
:0200000401f009
:040014005f00000089
:020000040000fa
:0200000401f009
:04001800f7000000ed
:020000040000fa
:0200000401f009
:04001c00dfff000002
:00000001FF
