:020000040000fa
:080000000002040000000000f2
:020000040000fa
:04000800d202000020
:020000040000fa
:04000c00d20200001c
:020000040000fa
:04001000d202000018
:020000040000fa
:04001400d202000014
:020000040000fa
:04001800d202000010
:020000040000fa
:04001c00d20200000c
:020000040000fa
:04002000d202000008
:020000040000fa
:04002400d202000004
:020000040000fa
:04002800d202000000
:020000040000fa
:04002c00d2020000fc
:020000040000fa
:04003000c802000002
:020000040000fa
:04003400d2020000f4
:020000040000fa
:04003800d2020000f0
:020000040000fa
:04003c00d2020000ec
:020000040000fa
:04004000d2020000e8
:020000040000fa
:04004400d2020000e4
:020000040000fa
:04004800d2020000e0
:020000040000fa
:04004c00d2020000dc
:020000040000fa
:04005000d2020000d8
:020000040000fa
:04005400d2020000d4
:020000040000fa
:04005800d2020000d0
:020000040000fa
:04005c00d2020000cc
:020000040000fa
:04006000d2020000c8
:020000040000fa
:04006400d2020000c4
:020000040000fa
:04006800d2020000c0
:020000040000fa
:04006c00d2020000bc
:020000040000fa
:04007000d2020000b8
:020000040000fa
:04007400d2020000b4
:020000040000fa
:04007800d2020000b0
:020000040000fa
:04007c00d2020000ac
:020000040000fa
:04008000d2020000a8
:020000040000fa
:04008400d2020000a4
:020000040000fa
:04008800d2020000a0
:020000040000fa
:04008c00d20200009c
:020000040000fa
:04009000d202000098
:020000040000fa
:04009400d202000094
:020000040000fa
:04009800d202000090
:020000040000fa
:04009c00d20200008c
:020000040000fa
:0400a000d202000088
:020000040000fa
:0400a400d202000084
:020000040000fa
:0400a800d202000080
:020000040000fa
:0400ac00d20200007c
:020000040000fa
:0400b000d202000078
:020000040000fa
:0400b400d202000074
:020000040000fa
:0400b800d202000070
:020000040000fa
:0400bc00d20200006c
:020000040000fa
:0400c000d202000068
:020000040000fa
:0400c400d202000064
:020000040000fa
:0400c800d202000060
:020000040000fa
:0400cc00d20200005c
:020000040000fa
:0400d000d202000058
:020000040000fa
:0400d400d202000054
:020000040000fa
:0400d800d202000050
:020000040000fa
:0400dc00d20200004c
:020000040000fa
:0400e000d202000048
:020000040000fa
:0400e400d202000044
:020000040000fa
:0400e800d202000040
:020000040000fa
:0400ec00d20200003c
:020000040000fa
:0400f000d202000038
:020000040000fa
:0400f400d202000034
:020000040000fa
:0400f800d202000030
:020000040000fa
:0400fc00d20200002c
:020000040000fa
:04010000d202000027
:020000040000fa
:04010400d202000023
:020000040000fa
:04010800d20200001f
:020000040000fa
:04010c00d20200001b
:020000040000fa
:04011000d202000017
:020000040000fa
:04011400d202000013
:020000040000fa
:04011800d20200000f
:020000040000fa
:04011c00d20200000b
:020000040000fa
:04012000d202000007
:020000040000fa
:04012400d202000003
:020000040000fa
:04012800d2020000ff
:020000040000fa
:04012c00d2020000fb
:020000040000fa
:04013000d2020000f7
:020000040000fa
:04013400d2020000f3
:020000040000fa
:04013800d2020000ef
:020000040000fa
:04013c00d2020000eb
:020000040000fa
:04014000d2020000e7
:020000040000fa
:04014400d2020000e3
:020000040000fa
:04014800d2020000df
:020000040000fa
:04014c00d2020000db
:020000040000fa
:04015000d2020000d7
:020000040000fa
:04020800d20200001e
:020000040000fa
:04020c00d20200001a
:020000040000fa
:04021000d202000016
:020000040000fa
:04021400d202000012
:020000040000fa
:04021800d20200000e
:020000040000fa
:04021c00d20200000a
:020000040000fa
:04022000d202000006
:020000040000fa
:04022400d202000002
:020000040000fa
:04022800d2020000fe
:020000040000fa
:04022c00d2020000fa
:020000040000fa
:04023000c802000000
:020000040000fa
:04023400d2020000f2
:020000040000fa
:04023800d2020000ee
:020000040000fa
:04023c00d2020000ea
:020000040000fa
:04024000d2020000e6
:020000040000fa
:04024400d2020000e2
:020000040000fa
:04024800d2020000de
:020000040000fa
:04024c00d2020000da
:020000040000fa
:04025000d2020000d6
:020000040000fa
:04025400d2020000d2
:020000040000fa
:04025800d2020000ce
:020000040000fa
:04025c00d2020000ca
:020000040000fa
:04026000d2020000c6
:020000040000fa
:04026400d2020000c2
:020000040000fa
:04026800d2020000be
:020000040000fa
:04026c00d2020000ba
:020000040000fa
:04027000d2020000b6
:020000040000fa
:04027400d2020000b2
:020000040000fa
:04027800d2020000ae
:020000040000fa
:04027c00d2020000aa
:020000040000fa
:04028000d2020000a6
:020000040000fa
:04028400d2020000a2
:020000040000fa
:04028800d20200009e
:020000040000fa
:04028c00d20200009a
:020000040000fa
:04029000d202000096
:020000040000fa
:04029400d202000092
:020000040000fa
:04029800d20200008e
:020000040000fa
:04029c00d20200008a
:020000040000fa
:0402a000d202000086
:020000040000fa
:0402a400d202000082
:020000040000fa
:0402a800d20200007e
:020000040000fa
:0402ac00d20200007a
:020000040000fa
:0402b000d202000076
:020000040000fa
:0402b400d202000072
:020000040000fa
:0402b800d20200006e
:020000040000fa
:0402bc00d20200006a
:020000040000fa
:0402c000d202000066
:020000040000fa
:0402c400d202000062
:020000040000fa
:0402c800d20200005e
:020000040000fa
:0402cc00d20200005a
:020000040000fa
:0402d000d202000056
:020000040000fa
:0402d400d202000052
:020000040000fa
:0402d800d20200004e
:020000040000fa
:0402dc00d20200004a
:020000040000fa
:0402e000d202000046
:020000040000fa
:0402e400d202000042
:020000040000fa
:0402e800d20200003e
:020000040000fa
:0402ec00d20200003a
:020000040000fa
:0402f000d202000036
:020000040000fa
:0402f400d202000032
:020000040000fa
:0402f800d20200002e
:020000040000fa
:0402fc00d20200002a
:020000040000fa
:04030000d202000025
:020000040000fa
:04030400d202000021
:020000040000fa
:04030800d20200001d
:020000040000fa
:04030c00d202000019
:020000040000fa
:04031000d202000015
:020000040000fa
:04031400d202000011
:020000040000fa
:04031800d20200000d
:020000040000fa
:04031c00d202000009
:020000040000fa
:04032000d202000005
:020000040000fa
:04032400d202000001
:020000040000fa
:04032800d2020000fd
:020000040000fa
:04032c00d2020000f9
:020000040000fa
:04033000d2020000f5
:020000040000fa
:04033400d2020000f1
:020000040000fa
:04033800d2020000ed
:020000040000fa
:04033c00d2020000e9
:020000040000fa
:04034000d2020000e5
:020000040000fa
:04034400d2020000e1
:020000040000fa
:04034800d2020000dd
:020000040000fa
:04034c00d2020000d9
:020000040000fa
:04035000d2020000d5
:020000040000fa
:100400000f8020000eff20000e0188000000000079
:10041000000020000000e000020032000001200087
:100420002002880014000700600007000000e000c0
:1004300003003a0000002000010020000200370005
:100440000000200001002000810f70000100320038
:1004500014000700000020000000e000020032004d
:1004600000000200000000009c03020000000000e9
:100470000040da000000fe004440a9000000200017
:100480000000e0000300320000002000a00188000e
:100490004440a800000006008a1f78008b1f7800e7
:1004a0000000060091018800800478000000eb0045
:1004b0001a003700e284440032a0b4009905ba0063
:1004c000e284440032a0b4009906ba00e2844400f9
:1004d00032a0b4000006eb00476fde00fd07b2005b
:1004e000636ce10003003a00ebff07000000eb0043
:1004f0000a003700606ce10004003a00005deb0088
:100500008b05e900fdff3e00040037006168e10053
:10051000010032000086eb000b00070019c7ba008b
:100520001905ba000e04e00003003a000a00e000da
:10053000e0ff3a0000000600fe07b2009e018800be
:100540008a047800f5ff3700395dba008b05e900b1
:100550000c003200295dba008b05e900080032006a
:100560000c00e00003003a00e284440032a0b40032
:10057000f5ff370019ddba008b05e900faff3a00f4
:100580008904e800e184440032a0b40000000600c1
:100590000000fa000621ef008440a9000080fa0064
:1005a000004006000040da000000fe0000000500e8
:020000040000fa
:1005b0000000fa00401680000070a100401688007c
:1005c00031368000f00f2e00808060000020210076
:1005d00001007000303688000080fa00000006003c
:1005e0000000fa0011e1a9001021a9008108800093
:1005f000f0fc2f00008060000040a0008008880010
:100600001061a9000080fa00000006000000fa0056
:10061000210c800080ff2f0000806000200c8800eb
:100620008461a9009440a8008440a90021058000ad
:10063000007020000100700020058800210c80005f
:1006400080ff2f00008060000000a000200c8800c8
:10065000800c2000100c880011e1a8000080fa0036
:10066000000006000000fa00210c800080ff2f002f
:1006700000806000200c88008461a9009440a800dc
:100680008440a90021058000007020000100700056
:1006900020058800210c800080ff2f000080600072
:1006a0000010a000200c8800803e2000100c880064
:1006b00011e1a8000080fa00000006000000fa0026
:1006c000210c800080ff2f0000806000200c88003b
:1006d0008461a9009440a8008440a90021058000fd
:1006e000007020000100700020058800210c8000af
:1006f00080ff2f00008060003000b300200c8800d5
:10070000803e2000100c880011e1a8000080fa0053
:10071000000006000000fa000080fa000000060059
:100720000000fa000080fa00000006000000fa0055
:100730000080fa00000006000400fa00000f7800b4
:10074000110798009aff0700a5ff0700dbff0700cd
:04075000ffff370070
:020000040000fa
:0200000401f009
:04000000ffffff00ff
:020000040000fa
:0200000401f009
:04000800ffffff00f7
:020000040000fa
:0200000401f009
:04000c0002000000ee
:020000040000fa
:0200000401f009
:04001000a700000045
:020000040000fa
:0200000401f009
:040014005f00000089
:020000040000fa
:0200000401f009
:04001800f7000000ed
:020000040000fa
:0200000401f009
:04001c00dfff000002
:00000001FF
