:020000040000fa
:080000000002040000000000f2
:020000040000fa
:04000800f6020000fc
:020000040000fa
:04000c00f6020000f8
:020000040000fa
:04001000f6020000f4
:020000040000fa
:04001400f6020000f0
:020000040000fa
:04001800f6020000ec
:020000040000fa
:04001c00f6020000e8
:020000040000fa
:04002000f6020000e4
:020000040000fa
:04002400f6020000e0
:020000040000fa
:04002800f6020000dc
:020000040000fa
:04002c00f6020000d8
:020000040000fa
:04003000f6020000d4
:020000040000fa
:04003400f6020000d0
:020000040000fa
:04003800f6020000cc
:020000040000fa
:04003c00f6020000c8
:020000040000fa
:04004000f6020000c4
:020000040000fa
:04004400f6020000c0
:020000040000fa
:04004800c8020000ea
:020000040000fa
:04004c00f6020000b8
:020000040000fa
:04005000f6020000b4
:020000040000fa
:04005400f6020000b0
:020000040000fa
:04005800f6020000ac
:020000040000fa
:04005c00f6020000a8
:020000040000fa
:04006000f6020000a4
:020000040000fa
:04006400f6020000a0
:020000040000fa
:04006800f60200009c
:020000040000fa
:04006c00f602000098
:020000040000fa
:04007000f602000094
:020000040000fa
:04007400f602000090
:020000040000fa
:04007800f60200008c
:020000040000fa
:04007c00f602000088
:020000040000fa
:04008000f602000084
:020000040000fa
:04008400f602000080
:020000040000fa
:04008800f60200007c
:020000040000fa
:04008c00f602000078
:020000040000fa
:04009000f602000074
:020000040000fa
:04009400f602000070
:020000040000fa
:04009800f60200006c
:020000040000fa
:04009c00f602000068
:020000040000fa
:0400a000f602000064
:020000040000fa
:0400a400f602000060
:020000040000fa
:0400a800f60200005c
:020000040000fa
:0400ac00f602000058
:020000040000fa
:0400b000f602000054
:020000040000fa
:0400b400f602000050
:020000040000fa
:0400b800f60200004c
:020000040000fa
:0400bc00f602000048
:020000040000fa
:0400c000f602000044
:020000040000fa
:0400c400f602000040
:020000040000fa
:0400c800f60200003c
:020000040000fa
:0400cc00f602000038
:020000040000fa
:0400d000f602000034
:020000040000fa
:0400d400f602000030
:020000040000fa
:0400d800f60200002c
:020000040000fa
:0400dc00f602000028
:020000040000fa
:0400e000f602000024
:020000040000fa
:0400e400f602000020
:020000040000fa
:0400e800f60200001c
:020000040000fa
:0400ec00f602000018
:020000040000fa
:0400f000f602000014
:020000040000fa
:0400f400f602000010
:020000040000fa
:0400f800f60200000c
:020000040000fa
:0400fc00f602000008
:020000040000fa
:04010000f602000003
:020000040000fa
:04010400f6020000ff
:020000040000fa
:04010800f6020000fb
:020000040000fa
:04010c00f6020000f7
:020000040000fa
:04011000f6020000f3
:020000040000fa
:04011400f6020000ef
:020000040000fa
:04011800f6020000eb
:020000040000fa
:04011c00f6020000e7
:020000040000fa
:04012000f6020000e3
:020000040000fa
:04012400f6020000df
:020000040000fa
:04012800f6020000db
:020000040000fa
:04012c00f6020000d7
:020000040000fa
:04013000f6020000d3
:020000040000fa
:04013400f6020000cf
:020000040000fa
:04013800f6020000cb
:020000040000fa
:04013c00f6020000c7
:020000040000fa
:04014000f6020000c3
:020000040000fa
:04014400f6020000bf
:020000040000fa
:04014800f6020000bb
:020000040000fa
:04014c00f6020000b7
:020000040000fa
:04015000f6020000b3
:020000040000fa
:04020800f6020000fa
:020000040000fa
:04020c00f6020000f6
:020000040000fa
:04021000f6020000f2
:020000040000fa
:04021400f6020000ee
:020000040000fa
:04021800f6020000ea
:020000040000fa
:04021c00f6020000e6
:020000040000fa
:04022000f6020000e2
:020000040000fa
:04022400f6020000de
:020000040000fa
:04022800f6020000da
:020000040000fa
:04022c00f6020000d6
:020000040000fa
:04023000f6020000d2
:020000040000fa
:04023400f6020000ce
:020000040000fa
:04023800f6020000ca
:020000040000fa
:04023c00f6020000c6
:020000040000fa
:04024000f6020000c2
:020000040000fa
:04024400f6020000be
:020000040000fa
:04024800c8020000e8
:020000040000fa
:04024c00f6020000b6
:020000040000fa
:04025000f6020000b2
:020000040000fa
:04025400f6020000ae
:020000040000fa
:04025800f6020000aa
:020000040000fa
:04025c00f6020000a6
:020000040000fa
:04026000f6020000a2
:020000040000fa
:04026400f60200009e
:020000040000fa
:04026800f60200009a
:020000040000fa
:04026c00f602000096
:020000040000fa
:04027000f602000092
:020000040000fa
:04027400f60200008e
:020000040000fa
:04027800f60200008a
:020000040000fa
:04027c00f602000086
:020000040000fa
:04028000f602000082
:020000040000fa
:04028400f60200007e
:020000040000fa
:04028800f60200007a
:020000040000fa
:04028c00f602000076
:020000040000fa
:04029000f602000072
:020000040000fa
:04029400f60200006e
:020000040000fa
:04029800f60200006a
:020000040000fa
:04029c00f602000066
:020000040000fa
:0402a000f602000062
:020000040000fa
:0402a400f60200005e
:020000040000fa
:0402a800f60200005a
:020000040000fa
:0402ac00f602000056
:020000040000fa
:0402b000f602000052
:020000040000fa
:0402b400f60200004e
:020000040000fa
:0402b800f60200004a
:020000040000fa
:0402bc00f602000046
:020000040000fa
:0402c000f602000042
:020000040000fa
:0402c400f60200003e
:020000040000fa
:0402c800f60200003a
:020000040000fa
:0402cc00f602000036
:020000040000fa
:0402d000f602000032
:020000040000fa
:0402d400f60200002e
:020000040000fa
:0402d800f60200002a
:020000040000fa
:0402dc00f602000026
:020000040000fa
:0402e000f602000022
:020000040000fa
:0402e400f60200001e
:020000040000fa
:0402e800f60200001a
:020000040000fa
:0402ec00f602000016
:020000040000fa
:0402f000f602000012
:020000040000fa
:0402f400f60200000e
:020000040000fa
:0402f800f60200000a
:020000040000fa
:0402fc00f602000006
:020000040000fa
:04030000f602000001
:020000040000fa
:04030400f6020000fd
:020000040000fa
:04030800f6020000f9
:020000040000fa
:04030c00f6020000f5
:020000040000fa
:04031000f6020000f1
:020000040000fa
:04031400f6020000ed
:020000040000fa
:04031800f6020000e9
:020000040000fa
:04031c00f6020000e5
:020000040000fa
:04032000f6020000e1
:020000040000fa
:04032400f6020000dd
:020000040000fa
:04032800f6020000d9
:020000040000fa
:04032c00f6020000d5
:020000040000fa
:04033000f6020000d1
:020000040000fa
:04033400f6020000cd
:020000040000fa
:04033800f6020000c9
:020000040000fa
:04033c00f6020000c5
:020000040000fa
:04034000f6020000c1
:020000040000fa
:04034400f6020000bd
:020000040000fa
:04034800f6020000b9
:020000040000fa
:04034c00f6020000b5
:020000040000fa
:04035000f6020000b1
:020000040000fa
:100400000fa020000edf20000e0188000000000079
:10041000000020000000e000020032000001200087
:100420002002880014000700b70007000000e00069
:1004300003003a0040aa200001002000020037001b
:100440000000200001002000810f70000100320038
:1004500014000700000020000000e000020032004d
:100460000000020000000000280e02000000000052
:100470000040da000000fe004440a9000000200017
:100480000000e0000300320000002000a00188000e
:100490004440a800000006008a1f78008b1f7800e7
:1004a0000000060091018800800478000000eb0045
:1004b0001a003700e284440032a0b4009905ba0063
:1004c000e284440032a0b4009906ba00e2844400f9
:1004d00032a0b4000006eb00476fde00fd07b2005b
:1004e000636ce10003003a00ebff07000000eb0043
:1004f0000a003700606ce10004003a00005deb0088
:100500008b05e900fdff3e00040037006168e10053
:10051000010032000086eb000b00070019c7ba008b
:100520001905ba000e04e00003003a000a00e000da
:10053000e0ff3a0000000600fe07b2009e018800be
:100540008a047800f5ff3700395dba008b05e900b1
:100550000c003200295dba008b05e900080032006a
:100560000c00e00003003a00e284440032a0b40032
:10057000f5ff370019ddba008b05e900faff3a00f4
:100580008904e800e184440032a0b40000000600c1
:100590003600f800809fbe00829fbe00849fbe0090
:1005a000869fbe000000fa0010c0b30002e8b7004a
:1005b0006116800000002800008068006016880036
:1005c0000040eb0033060700c04088008500a9000a
:1005d0000080fa004f03be004f02be004f01be0074
:1005e0004f00be003600f900004006000040da006f
:1005f0000000fe00800090000101e900c0009000b2
:100600000000200002800900801878000000060029
:10061000889fbe008a9fbe008c9fbe008e1f780000
:100620004400f800080f2000280288003400f80079
:100630004600f8004800f8004a00f8004c00f800b6
:100640004e00f8008a0a2c003a0288002304900029
:100650005802880013049000480288005305900057
:100660007a028800430590006a028800811f7800a2
:100670000f0778003305900007f02f000a38e100db
:1006800004003200270280004700b30027028800e0
:10069000aa018800630590000302900063025200e3
:1006a0000000e9000080080007000000320d78001b
:1006b000000000004618c300048009004618c4006a
:1006c0004218c4001201c4003100cd00ea019800b4
:1006d0008e0778004f0078004e00f9004c00f900ba
:1006e0004a00f9004800f9004600f9003400f9001a
:1006f0004400f9004f0778004f06be004f05be00ca
:100700004f04be00000006000000050003f0a20038
:10071000889fbe008a9fbe008c1f7800f6000700ed
:10072000fd0033006450e1004f0032006420e1001e
:100730005200320003826c0007003b000905d00024
:100740000306d000820f54000c065d000200390041
:100750000200320089017800030678008582550086
:1007600004003d000003fd008103fd008502ea0056
:100770008b854200840f720002003b006000100075
:10078000e08018006011b8000005eb007a28e10055
:100790000a00390006007800c75ddd00f707b200e7
:1007a000878075002d003700828171000a01780072
:1007b000610560008180d1000080d3008502e900de
:1007c000f9ff3b00060440008784480002003b001c
:1007d00060041400e0841c000988a30007003200b4
:1007e0008a81710082817100610164008904d100f5
:1007f0000884d3008b05e800170037000978a300b0
:1008000013003a000b00e000130034008b05e900f0
:100810000804440089844c000a4474000978a30049
:100820000d003a000b00e000070034008b05e900e2
:100830000804440089844c0001003a000b002000a9
:100840000978a300f7ff32000001eb000200370037
:10085000828171000a0178006c0007000cf0a7008b
:1008600001f0a000b50037006420e10002003a006a
:10087000838f6c00b50033000801be000200be008b
:10088000ae003700889fbe008a9fbe008c1f780094
:1008900099000700a000330003866c006450e1005b
:1008a0002e0032006420e100330032006150e1008c
:1008b0002f0032006120e1003100320085855500b3
:1008c000eb07b000090020000804200005003700f5
:1008d0000804440089844c000a00310006034300e8
:1008e00087834b000001530081815b00f8ff3300d8
:1008f0000203be000800a0000804440089844c00e4
:10090000f6ff3900c639dd008301730001003200b3
:10091000130020008904d1000884d3000998a300a3
:10092000050032000800a7000300a0008904d100e0
:100930000884d3008b05e8008904d1000884d30023
:100940000001eb000281d2003000070001f0a1009d
:100950000cf0a70001f0a000780037006420e1004f
:100960007a0032000801be000200be00f7ff370027
:100970006120e100750032006000b800f3ff37002d
:100980000000200001f82700f0ff37000001be0042
:10099000440007000470a70003f0a10003f8a300bf
:1009a00013003a006509b10010003200090035005b
:1009b0006928e10002003500010028000000050060
:1009c00000004000818048008502e900fcff3a00f9
:1009d00000000600f88f4200050035008100d100bc
:1009e0000080d3008502e800fcff3a00000006000a
:1009f0008000eb00000005004f89de0082017800d6
:100a0000990037006011b800a7003700810020006e
:100a1000618055000b003d000b00200061fe2f009f
:100a20000100e1001d003400828171006101640059
:100a30008904d1000884d3000000e800faff3a00de
:100a4000710020006100640003007000020060007b
:100a50000900320061044400e0844c000988a500cc
:100a6000050032008b05e8006808e10002003a004a
:100a70008904d1000884d300f20f20000258e1005d
:100a800005003d00c75ddd00f907b20089807500f3
:100a900008007800000006000bf827008b007800a3
:100aa00000000500c70ade00f107b200f50fb20032
:100ab00008003200e1cf4200020032000170a000c5
:100ac00024000500810f70000100320004080500b9
:100ad00044000500810f700002003a001400050078
:100ae0008502e9000000400081c04800fcff3b0097
:100af0000170a000240005000004be00e9ff07000b
:100b00000003be000405be000200be00e5ff0700b2
:100b1000844f7500000006000200be006450e10032
:100b2000050036006420e100020036000968a300d9
:100b300001003a000800be000160a0004f067800e6
:100b40004f05be004f04be0000000600f0ff2f005e
:100b5000f1ff2700f9ff3700889fbe008a9fbe0083
:100b60008c1f7800e4ff0700ebff330003866c0066
:100b70006450e100240032006420e10027003200cc
:100b80006150e100220032006120e10021003200ca
:100b90008b854200eb07b1000134b800003ab80081
:100ba0000804420089844a00013ab8000030b800c5
:100bb0008880400009014a00040033000000400022
:100bc00081804800020149008b05e900c909dd0068
:100bd000830170000100320013002000c814de0001
:100be0004814dd004709de001200b200c808de002c
:100bf0000884700085ff070001f0a1000cf0a70039
:100c000001f0a000cdff37006120e100cfff3200ee
:100c10000801be000200be00f7ff37006150e1008e
:100c2000fcff3a00c9ff37006022b800060220002e
:100c30000000d0008180d2000482d2008582d200e0
:100c40000000a0000202520083825a00030031001b
:100c50000202420083824a000000a1000603e9006c
:100c6000f3ff3a0000000600881f780003047800b4
:100c70000300e00007003d0060001000e080180065
:100c800060011900e081190002003b0001f02d0015
:100c9000030037000400070008f0a70001f0a000df
:100ca0004f04780000000600889fbe008a9fbe00a7
:100cb000008270000402710004827100260032007c
:100cc0000004be000200be006011b8006b092000e5
:100cd000950220000182cf000a0039000541b100d1
:100ce0000082cf00070039000541b1000982cf0022
:100cf000040039000541b1000882cf00010039002d
:100d00000541b10005425200120032000a003b00ca
:100d100082817100610164008100d1000080d300f4
:100d20008984d3000884d3008b05e8000442e800de
:100d3000f7ff3a00070037000804440089844c009c
:100d400000004800818048008b05e9000442e9006a
:100d5000f9ff3a002dff07004f05be004f04be000b
:040d60000000060089
:020000040000fa
:100d64000e00fa00889fbe004047980031079800a3
:100d74004207980053079800444f9800ce489000cb
:100d840000c4b30080cf500002003a0020002000cd
:100d9400000f78004e489000e84f500002003a00df
:100da40010002000000f78004e489000e14f5000e2
:100db40002003a000000eb00000f78004e40900063
:100dc4000080fb00e10f500030003200e20f5000c1
:100dd4005a0032000000e00084003a0005e1a90056
:100de4000421a90004c1a9001e0078000040780075
:100df400634060000080fb00630060004400dd008d
:100e040022088000f1fc2f008100610001007000c5
:100e1400200888000268290083a924004e0090005d
:100e2400de0090004bff07000004be004e48900017
:100e34000080fb00cf80de00eefe07000001be0054
:100e44000800be008efe0700cffe070000007800f9
:100e54000000e900100798009e0090001108880027
:100e6400be009000010888009460a8008460a90076
:100e740021058000f0ff28000080600000c0a00071
:100e84002005880005e1a8005800370011e1a900f9
:100e94001021a90010c1a9001e00780000407800ac
:100ea400634060000080fb00630060004400dd00dc
:100eb40082088000f1fc2f008100610001007000b5
:100ec400800888000268290083a924004e0090004d
:100ed400de0090001fff07000004be004e48900093
:100ee4000080fb00cf80de00c2fe07000001be00d0
:100ef4000800be0062fe0700a3fe070000007800a1
:100f04000000e900100798009e0090006108880026
:100f1400be0090003108880094e0a80084e0a90095
:100f240031058000f0ff28000080600000d0a000a0
:100f34003005880011e1a8002c00370013e1a90056
:100f44001221a90012c1a9001e00780000407800f7
:100f5400634060000080fb00630060004400dd002b
:100f640092088000f1fc2f008100610001007000f4
:100f7400900888000268290083a924004e0090008c
:100f8400de009000f3fe07000004be004e4890000f
:100f94000080fb00cf80de0096fe07000001be004b
:100fa4000800be0036fe070077fe07000000780048
:100fb4000000e900100798009e0090007108880066
:100fc400be009000510888009500a8008500a90083
:100fd4004105800080ff2f00008060003000b300d6
:100fe4004005880013e1a800000000004f04be0083
:100ff4000080fa00000006000a00fa00204798006a
:101004002107980032079800034f98008e489000fb
:1010140000c4b30080cf500002003a00200020003a
:10102400000f78000e489000e84f500002003a008c
:1010340010002000000f78000e489000e14f50008f
:1010440002003a000000eb00000f78002e409000f0
:101054000080fb00e10f500003003200e20f50005b
:10106400240032004700370011e1a9001021a80034
:101074004016800000f0a000401688003134800043
:1010840000fe2f0000806000f000b30030348800c0
:101094001e00780000407800634060000080fb0080
:1010a400630060004400dd0082088000f1fc2f0032
:1010b400810061000100700080088800be0090007b
:1010c400610888002e4090000080fb0030088800f2
:1010d40094e0a80084e0a90031058000f0ff280016
:1010e4000080600000d0a0003005880011e1a80055
:1010f4002400370013e1a9001221a8004016800043
:1011040000e0a0004016880031348000f00f2e006b
:101114008080600000f020000100700030348800fe
:101124001e00780000407800634060000080fb00ef
:10113400630060004400dd0092088000f1fc2f0091
:10114400810061000100700090088800be009000da
:10115400710888002e4090000080fb005008880031
:101164009500a8008500a9004105800080ff2f009c
:10117400008060003000b3004005880013e1a8003f
:10118400000000000080fa00000006000e00fa00d3
:10119400889fbe0040479800310798004207980096
:1011a40053079800444f9800ce48900000c4b30001
:1011b40080cf500002003a0020002000000f780089
:1011c4004e489000e84f500002003a001000200002
:1011d400000f78004e489000e14f500002003a00a2
:1011e4000000eb00000f78004e4090000080fb00f0
:1011f400e10f500003003200e20f500036003200cd
:101204006b00370011e1a9001021a90010c1a8004a
:101214004016800000f0a0004016880031348000a1
:1012240000fe2f0000806000f000b300303488001e
:101234001e00780000407800634060000080fb00de
:10124400630060004400dd0082088000f1fc2f0090
:101254008100610001007000800888000268290094
:1012640083a924004e009000de00900039fe0700a0
:101274000004be004e4890000080fb00cf80de00da
:10128400dcfd07000001be000800be007cfd070075
:10129400bdfd0700000078000000e9001007980079
:1012a4009e009000610888004e4090000080fb0082
:1012b4003008880094e0a80084e0a900310580008b
:1012c400f0ff28000080600000d0a00030058800f6
:1012d40011e1a8003600370013e1a9001221a9008a
:1012e40012c1a8004016800000e0a000401688004b
:1012f40031348000f00f2e008080600000f0200068
:1013040001007000303488001e007800004078002e
:10131400634060000080fb00630060004400dd0067
:1013240092088000f1fc2f00810061000100700030
:10133400900888000268290083a924004e009000c8
:10134400de00900003fe07000004be004e4890003b
:101354000080fb00cf80de00a6fd07000001be0078
:101364000800be0046fd070087fd07000000780066
:101374000000e900100798009e00900071088800a2
:101384004e4090000080fb00500888009500a800a3
:101394008500a9004105800080ff2f0000806000c7
:1013a4003000b3004005880013e1a80000000000ed
:1013b4004f04be000080fa00000006000200fa009c
:1013c400004f78001e80fb00e10f50001d0032002a
:1013d400e20f5000390032000000e00057003a00ec
:1013e40011e1a90013e1a9001061a8001021a900ce
:1013f40010c1a90081088000f0fc2f00008060006b
:101404000040a000800888000621ef000a21ef00b8
:10141400f00520007008880000e1250060088800bd
:101424009500a8008500a9004105800080ff2f00d9
:10143400008060003000b3004005880011e1a8007e
:101444003e00370011e1a90013e1a9001061a800d2
:101454001021a80081088000f0fc2f0000806000ab
:10146400800888004016800000f0a0004016880024
:101474003134800000fe2f0000806000f000b300d3
:10148400303488000621ef000a21ef000e21ef001e
:1014940050002000600888009500a8008500a9007d
:1014a4004105800080ff2f00008060003000b30001
:1014b4004005880011e1a8002000370011e1a900cf
:1014c40013e1a9001061a8001021a90010c1a8000f
:1014d40081088000f0fc2f00008060000050a00014
:1014e400800888004016800000f0a00040168800a4
:1014f4003134800000fe2f0000806000f000b30053
:10150400303488000621ef000a21ef000e21ef009d
:1015140010f42000600888009500a8008500a90048
:101524004105800080ff2f00008060003000b30080
:101534004005880011e1a800000000000080fa00c6
:04154400000006009d
:020000040000fa
:1015480000080000460000000000000046080000f7
:101558000e0000000200000016000000092b090020
:1015680000ff00000e2b0e00000e00000009000016
:10157800000100000200000043007d00000d010092
:101588001802aa0003b00500f8073c000a290c005d
:10159800740de9000d740d00290c3c000af80700d1
:1015a800b005aa00031802000d017d0000430000e9
:1015b8000000000000000000000000000000000023
:1015c8000000000000000000000000000000000013
:1015d8000000000000000000000000000000000003
:1015e80000000000000000000000000000000000f3
:1015f80000000000000000000000000000000000e3
:1016080000000000000000000000000000000000d2
:1016180000000000000000000000000000000000c2
:1016280000000000000000000000000000000000b2
:1016380000000000000000000000000000000000a2
:101648000000000000000000000000000000000092
:101658000000000000000000000000000000000082
:101668000000000000000000000000000000000072
:101678000000000000000000000000000000000062
:101688000000000000000000000000000000000052
:101698000000000000000000000000000000000042
:1016a8000000000000000000000000000000000032
:1016b8000000000000000000000000000000000022
:1016c8000000000000000000000000000000000012
:1016d800000e0000000100000200000000000000f1
:1016e80000000000000000000000000000000000f2
:1016f80000000000000000000000000000000000e2
:1017080000000000000000000000000000000000d1
:1017180000000000000000000000000000000000c1
:1017280000000000000000000000000000000000b1
:1017380000000000000000000000000000000000a1
:101748000000000000000000000000000000000091
:101758000000000000000000000000000000000081
:101768000000000000000000000000000000000071
:101778000000000000000000000000000000000061
:101788000000000000000000000000000000000051
:101798000000000000000000000000000000000041
:1017a8000000000000000000000000000000000031
:1017b8000000000000000000000000000000000021
:1017c8000000000000000000000000000000000011
:1017d8000000000000000000000000000000000001
:1017e80000000000000000000000000000000000f1
:1017f80000000000000000000000000000000000e1
:1018080000000000000000000000000000000000d0
:1018180000000000000000000000000000000000c0
:1018280000000000000000000000000000000000b0
:081838000000000000000000a8
:020000040000fa
:101840000a00fa00889fbe004007980090952d007e
:1018500001402300008fbe004e0090008000eb008e
:101860000001be008038210001002000eefc0700ce
:1018700064fc07000004be000268290083a924005c
:101880001e00be00b4fc07000001be000800be0040
:101890009efb070002002000030024009bfb0700c2
:1018a00020079800310798002e009000be0090009d
:1018b00036fc0700004078000080fb002010880004
:1018c0000762a90007e2a8004f04be000080fa00ea
:1018d000000006000000fa000602a8000000000058
:1018e00030108000610060000000e000fcff3a0062
:1018f0000080fa00000006000000fa000622a8009e
:101900000000000030108000620060000000e00075
:10191000fcff3a000080fa00000006000200fa0016
:10192000004f78001e80fb001010880000000000af
:101930004110800000002400008060000000e000f2
:10194000fbff3a000080fa00000006000200fa00e7
:10195000004f7800114798009e80fb00e00f2000a8
:10196000808060001e4090000080fb0061006000ed
:10197000010070001010880000000000411080007d
:1019800000002400008060000000e000fbff3a003f
:101990000080fa00000006000400fa00000f780042
:1019a000214798000682a9000662a8002e409000f8
:1019b0000004e00011003a00000000003010800038
:1019c000680060000000e000fcff3a0000108000aa
:1019d000804078001e0078000148780006a2a90027
:1019e0000682a80000000000301080007000600037
:1019f0000000e000fcff3a00130037002e4090008a
:101a0000e14f500010003a0000000000301080004c
:101a1000680060000000e000fcff3a000010800059
:101a2000804078001e0078000148780006a2a800d7
:101a30000682a800000000003010800070006000e6
:101a40000000e000fcff3a000080fa000000060001
:101a50000000fa000642a8000000000030108000dc
:101a6000640060000000e000fcff3a000080fa0023
:101a7000000006000800fa00008fbe0042479800f0
:101a80005347980064479800401680000060a1000a
:101a9000401688003136800000fe2f000080600074
:101aa0003000b30030368800401680000070a0007f
:101ab000401688002135800000fe2f000080600065
:101ac0007000b3002035880021e2a9004e4090004c
:101ad0000080fb0061006000011180000100a10096
:101ae00001007000001188005e40900063406000bb
:101af0000080fb00630060000000400002118000d5
:101b000091ff2f008100610001007000001188002a
:101b10001e01be00404b2c004100200042fc07008b
:101b2000000078000000e900401188002342a8006e
:101b300011118000f0f32f00008060001011880068
:101b40008560a9009560a8006e4090006740600025
:101b50000080fb00670060004c00dd004205800053
:101b6000f1ff28008100610001007000400588003d
:101b700021e2a8000080fa00000006000200fa003e
:101b8000004f7800000000001111800000202000ac
:101b9000008060000000e000fbff3a001e00fb0038
:101ba000201188000080fa00000006000400fa00fe
:101bb000100798009e009000010f78000400370085
:101bc0001e007800104078001e0fe800ebff0700b1
:101bd0001e007800104078000004e000f8ff3a0092
:101be0000080fa00000006000400fa00000f7800f0
:101bf000110798000080fa00000006000800fa00b3
:101c00001007980021079800320798000000eb00a9
:101c1000000f7800070037002e0090001040780079
:101c2000ae0090008100e80021079800d3ff070074
:101c30001e0fe8009e0078003e009000808f50004c
:101c4000f5ff39003e0090000080fa000000060019
:101c50000800fa002007980031079800c9e2a9009f
:101c600010c0b3004e00070014c0b3008041eb0069
:101c70000041eb0000582200010020007dff07001a
:101c800004c4b300f226210033b023008000eb002f
:101c900020c0b30033fc070040062000e8fe070028
:101ca0000000eb00000f780000802000000f78009b
:101cb000608420004ffa07004268ef000a003700f6
:101cc00042c8bf000080fb00800040004080200030
:101cd000008040008000eb000108780042c8bf008f
:101ce0000040e80042e8b70042c8bf00e94f50009a
:101cf000f3ff36004268ef000a00370042c8bf0019
:101d00000080fb00c200dd00a081200000814000b7
:101d10006000b8000089be0042c8bf000040e80073
:101d200042e8b70042c8bf00e94f5000f3ff360059
:101d3000010037000000000002c8bf000004e000fe
:101d4000fcff3200808120006384200000017800c5
:101d500001802000100020002dfa07001e00e8007e
:101d600010407800204798001e007800104078004e
:101d700030479800d7fe070000ccb300e7fe07000d
:101d80002e4090006f406000e4fe07003e4090004f
:101d9000e2fe07002eff07000268ef00e6ff3700b3
:101da0000200fa00004f78001e80fb00e10f500097
:101db0001b00320021e3a9002143a9000119800082
:101dc000f0cf2f000080600000198800011980000a
:101dd000f0f12f00008060000060a0000019880072
:101de0002023a9002043a80011198000f0ff210042
:101df000008060001019880011198000f0cf2f00ba
:101e0000008060001019880028e3a90025e3a900dc
:101e100010c0b30024e3b70021e3a8001b00370083
:101e200021e3a9002143a80001198000f0cf2f0071
:101e3000008060000019880001198000f0f12f0077
:101e4000008060000060a000001988002043a90005
:101e50002023a90011198000f0ff210000806000fc
:101e60001019880011198000f0cf2f000080600049
:101e70001019880028e3a90025e3a90020c0b300b9
:101e800024e3b70021e3a800000000000080fa006e
:101e9000000006000200fa00004f78009e40780023
:101ea0007fc060000080fb007f006000421980005e
:101eb00001fe2f00810061000100700040198800c0
:101ec0000000000000198000610060000000e000d8
:101ed000fcff3200001880000080fa0000000600bd
:020000040000fa
:0200000401f009
:04000000ffffff00ff
:020000040000fa
:0200000401f009
:04000800ffffff00f7
:020000040000fa
:0200000401f009
:04000c0002000000ee
:020000040000fa
:0200000401f009
:04001000a500000047
:020000040000fa
:0200000401f009
:040014005f00000089
:020000040000fa
:0200000401f009
:04001800f7000000ed
:020000040000fa
:0200000401f009
:04001c00dfff000002
:00000001FF
