:020000040000fa
:080000000002040000000000f2
:020000040000fa
:04000800f6020000fc
:020000040000fa
:04000c00f6020000f8
:020000040000fa
:04001000f6020000f4
:020000040000fa
:04001400f6020000f0
:020000040000fa
:04001800f6020000ec
:020000040000fa
:04001c00f6020000e8
:020000040000fa
:04002000f6020000e4
:020000040000fa
:04002400f6020000e0
:020000040000fa
:04002800f6020000dc
:020000040000fa
:04002c00f6020000d8
:020000040000fa
:04003000f6020000d4
:020000040000fa
:04003400f6020000d0
:020000040000fa
:04003800f6020000cc
:020000040000fa
:04003c00f6020000c8
:020000040000fa
:04004000f6020000c4
:020000040000fa
:04004400f6020000c0
:020000040000fa
:04004800c8020000ea
:020000040000fa
:04004c00f6020000b8
:020000040000fa
:04005000f6020000b4
:020000040000fa
:04005400f6020000b0
:020000040000fa
:04005800f6020000ac
:020000040000fa
:04005c00f6020000a8
:020000040000fa
:04006000f6020000a4
:020000040000fa
:04006400f6020000a0
:020000040000fa
:04006800f60200009c
:020000040000fa
:04006c00f602000098
:020000040000fa
:04007000f602000094
:020000040000fa
:04007400f602000090
:020000040000fa
:04007800f60200008c
:020000040000fa
:04007c00f602000088
:020000040000fa
:04008000f602000084
:020000040000fa
:04008400f602000080
:020000040000fa
:04008800f60200007c
:020000040000fa
:04008c00f602000078
:020000040000fa
:04009000f602000074
:020000040000fa
:04009400f602000070
:020000040000fa
:04009800f60200006c
:020000040000fa
:04009c00f602000068
:020000040000fa
:0400a000f602000064
:020000040000fa
:0400a400f602000060
:020000040000fa
:0400a800f60200005c
:020000040000fa
:0400ac00f602000058
:020000040000fa
:0400b000f602000054
:020000040000fa
:0400b400f602000050
:020000040000fa
:0400b800f60200004c
:020000040000fa
:0400bc00f602000048
:020000040000fa
:0400c000f602000044
:020000040000fa
:0400c400f602000040
:020000040000fa
:0400c800f60200003c
:020000040000fa
:0400cc00f602000038
:020000040000fa
:0400d000f602000034
:020000040000fa
:0400d400f602000030
:020000040000fa
:0400d800f60200002c
:020000040000fa
:0400dc00f602000028
:020000040000fa
:0400e000f602000024
:020000040000fa
:0400e400f602000020
:020000040000fa
:0400e800f60200001c
:020000040000fa
:0400ec00f602000018
:020000040000fa
:0400f000f602000014
:020000040000fa
:0400f400f602000010
:020000040000fa
:0400f800f60200000c
:020000040000fa
:0400fc00f602000008
:020000040000fa
:04010000f602000003
:020000040000fa
:04010400f6020000ff
:020000040000fa
:04010800f6020000fb
:020000040000fa
:04010c00f6020000f7
:020000040000fa
:04011000f6020000f3
:020000040000fa
:04011400f6020000ef
:020000040000fa
:04011800f6020000eb
:020000040000fa
:04011c00f6020000e7
:020000040000fa
:04012000f6020000e3
:020000040000fa
:04012400f6020000df
:020000040000fa
:04012800f6020000db
:020000040000fa
:04012c00f6020000d7
:020000040000fa
:04013000f6020000d3
:020000040000fa
:04013400f6020000cf
:020000040000fa
:04013800f6020000cb
:020000040000fa
:04013c00f6020000c7
:020000040000fa
:04014000f6020000c3
:020000040000fa
:04014400f6020000bf
:020000040000fa
:04014800f6020000bb
:020000040000fa
:04014c00f6020000b7
:020000040000fa
:04015000f6020000b3
:020000040000fa
:04020800f6020000fa
:020000040000fa
:04020c00f6020000f6
:020000040000fa
:04021000f6020000f2
:020000040000fa
:04021400f6020000ee
:020000040000fa
:04021800f6020000ea
:020000040000fa
:04021c00f6020000e6
:020000040000fa
:04022000f6020000e2
:020000040000fa
:04022400f6020000de
:020000040000fa
:04022800f6020000da
:020000040000fa
:04022c00f6020000d6
:020000040000fa
:04023000f6020000d2
:020000040000fa
:04023400f6020000ce
:020000040000fa
:04023800f6020000ca
:020000040000fa
:04023c00f6020000c6
:020000040000fa
:04024000f6020000c2
:020000040000fa
:04024400f6020000be
:020000040000fa
:04024800c8020000e8
:020000040000fa
:04024c00f6020000b6
:020000040000fa
:04025000f6020000b2
:020000040000fa
:04025400f6020000ae
:020000040000fa
:04025800f6020000aa
:020000040000fa
:04025c00f6020000a6
:020000040000fa
:04026000f6020000a2
:020000040000fa
:04026400f60200009e
:020000040000fa
:04026800f60200009a
:020000040000fa
:04026c00f602000096
:020000040000fa
:04027000f602000092
:020000040000fa
:04027400f60200008e
:020000040000fa
:04027800f60200008a
:020000040000fa
:04027c00f602000086
:020000040000fa
:04028000f602000082
:020000040000fa
:04028400f60200007e
:020000040000fa
:04028800f60200007a
:020000040000fa
:04028c00f602000076
:020000040000fa
:04029000f602000072
:020000040000fa
:04029400f60200006e
:020000040000fa
:04029800f60200006a
:020000040000fa
:04029c00f602000066
:020000040000fa
:0402a000f602000062
:020000040000fa
:0402a400f60200005e
:020000040000fa
:0402a800f60200005a
:020000040000fa
:0402ac00f602000056
:020000040000fa
:0402b000f602000052
:020000040000fa
:0402b400f60200004e
:020000040000fa
:0402b800f60200004a
:020000040000fa
:0402bc00f602000046
:020000040000fa
:0402c000f602000042
:020000040000fa
:0402c400f60200003e
:020000040000fa
:0402c800f60200003a
:020000040000fa
:0402cc00f602000036
:020000040000fa
:0402d000f602000032
:020000040000fa
:0402d400f60200002e
:020000040000fa
:0402d800f60200002a
:020000040000fa
:0402dc00f602000026
:020000040000fa
:0402e000f602000022
:020000040000fa
:0402e400f60200001e
:020000040000fa
:0402e800f60200001a
:020000040000fa
:0402ec00f602000016
:020000040000fa
:0402f000f602000012
:020000040000fa
:0402f400f60200000e
:020000040000fa
:0402f800f60200000a
:020000040000fa
:0402fc00f602000006
:020000040000fa
:04030000f602000001
:020000040000fa
:04030400f6020000fd
:020000040000fa
:04030800f6020000f9
:020000040000fa
:04030c00f6020000f5
:020000040000fa
:04031000f6020000f1
:020000040000fa
:04031400f6020000ed
:020000040000fa
:04031800f6020000e9
:020000040000fa
:04031c00f6020000e5
:020000040000fa
:04032000f6020000e1
:020000040000fa
:04032400f6020000dd
:020000040000fa
:04032800f6020000d9
:020000040000fa
:04032c00f6020000d5
:020000040000fa
:04033000f6020000d1
:020000040000fa
:04033400f6020000cd
:020000040000fa
:04033800f6020000c9
:020000040000fa
:04033c00f6020000c5
:020000040000fa
:04034000f6020000c1
:020000040000fa
:04034400f6020000bd
:020000040000fa
:04034800f6020000b9
:020000040000fa
:04034c00f6020000b5
:020000040000fa
:04035000f6020000b1
:020000040000fa
:10040000cf8120000eff20000e01880000000000b8
:10041000000020000000e000020032000001200087
:100420002002880014000700720007000000e000ae
:1004300003003a00a08720000100200002003700de
:100440000000200001002000810f70000100320038
:1004500014000700000020000000e000020032004d
:1004600000000200000000007e0502000000000005
:100470000040da000000fe004440a9000000200017
:100480000000e0000300320000002000a00188000e
:100490004440a800000006008a1f78008b1f7800e7
:1004a0000000060091018800800478000000eb0045
:1004b0001a003700e284440032a0b4009905ba0063
:1004c000e284440032a0b4009906ba00e2844400f9
:1004d00032a0b4000006eb00476fde00fd07b2005b
:1004e000636ce10003003a00ebff07000000eb0043
:1004f0000a003700606ce10004003a00005deb0088
:100500008b05e900fdff3e00040037006168e10053
:10051000010032000086eb000b00070019c7ba008b
:100520001905ba000e04e00003003a000a00e000da
:10053000e0ff3a0000000600fe07b2009e018800be
:100540008a047800f5ff3700395dba008b05e900b1
:100550000c003200295dba008b05e900080032006a
:100560000c00e00003003a00e284440032a0b40032
:10057000f5ff370019ddba008b05e900faff3a00f4
:100580008904e800e184440032a0b40000000600c1
:100590003600f800809fbe00829fbe00849fbe0090
:1005a000869fbe000000fa0010c0b30000e8b7004c
:1005b0006116800000002800008068006016880036
:1005c0000000eb00a9020700304088008500a90068
:1005d0000080fa004f03be004f02be004f01be0074
:1005e0004f00be003600f900004006000040da006f
:1005f0000000fe000000050003f0a200889fbe007e
:100600008a9fbe008c1f7800b1000700b80033003d
:100610006450e1004f0032006420e10052003200db
:1006200003826c0007003b000905d0000306d000e0
:10063000820f54000c065d000200390002003200f7
:1006400089017800030678008582550004003d008a
:100650000003fd008103fd008502ea008b85420056
:10066000840f720002003b0060001000e080180060
:100670006011b8000005eb007a28e1000a0039009b
:1006800006007800c75ddd00f707b20087807500bf
:100690002d003700828171000a0178006105600039
:1006a0008180d1000080d3008502e900f9ff3b0082
:1006b000060440008784480002003b0060041400e8
:1006c000e0841c000988a300070032008a817100c1
:1006d00082817100610164008904d1000884d30023
:1006e0008b05e800170037000978a30013003a00d3
:1006f0000b00e000130034008b05e90008044400ff
:1007000089844c000a4474000978a3000d003a0063
:100710000b00e000070034008b05e90008044400ea
:1007200089844c0001003a000b0020000978a300e6
:10073000f7ff32000001eb000200370082817100f8
:100740000a017800270007000cf0a70001f0a000c4
:10075000700037006420e10002003a00838f6c00d3
:10076000700033000801be000200be0069003700bf
:100770000001be00410007000470a70003f0a100c3
:1007800003f8a30013003a006509b100100032001d
:10079000090035006928e100020035000100280049
:1007a0000000050000004000818048008502e9004b
:1007b000fcff3a0000000600f88f420005003500fb
:1007c0008100d1000080d3008502e800fcff3a00e0
:1007d000000006008000eb00000005006011b8007a
:1007e0009700370081002000618055000b003d001c
:1007f0000b00200061fe2f000100e1001d0034000d
:1008000082817100610164008904d1000884d300f1
:100810000000e800faff3a00710020006100640067
:10082000030070000200600009003200610444000f
:10083000e0844c000988a500050032008b05e80023
:100840006808e10002003a008904d1000884d3005e
:10085000f20f20000258e10005003d00c75ddd00f9
:10086000f907b200898075000800780000000600d2
:100870000bf827008b00780000000500c70ade0097
:10088000f107b200f50fb20008003200e1cf4200dc
:10089000020032000170a00024000500810f7000ea
:1008a000010032000408050044000500810f7000bb
:1008b00002003a00140005008502e9000000400033
:1008c00081c04800fcff3b000170a000240005002f
:1008d0000004be00e9ff07000003be000405be00df
:1008e0000200be00e5ff0700844f7500000006000f
:1008f0000200be006450e100050036006420e10003
:10090000020036000968a30001003a000800be009a
:100910000160a0004f0678004f05be004f04be00e6
:1009200000000600f0ff2f00f1ff2700f9ff37005d
:10093000889fbe008a9fbe008c1f7800e4ff0700de
:10094000ebff330003866c006450e10024003200aa
:100950006420e100270032006150e10022003200f3
:100960006120e100210032008b854200eb07b100dd
:100970000134b800003ab8000804420089844a00f3
:10098000013ab8000030b8008880400009014a00f0
:10099000040033000000400081804800020149004b
:1009a0008b05e900c909dd008301700001003200f8
:1009b00013002000c814de004814dd004709de00e3
:1009c0001200b200c808de000884700085ff07002e
:1009d00001f0a1000cf0a70001f0a000cdff37004e
:1009e0006120e100cfff32000801be000200be001e
:1009f000f7ff37006150e100fcff3a00c9ff370004
:100a00006022b800060220000000d0008180d200e1
:100a10000482d2008582d2000000a00002025200af
:100a200083825a00030031000202420083824a009e
:100a30000000a1000603e900f3ff3a0000000600f1
:100a4000889fbe008a9fbe00008270000402710071
:100a500004827100260032000004be000200be00c5
:100a60006011b8006b092000950220000182cf00c0
:100a70000a0039000541b1000082cf0007003900ab
:100a80000541b1000982cf00040039000541b100e1
:100a90000882cf00010039000541b1000542520033
:100aa000120032000a003b00828171006101640083
:100ab0008100d1000080d3008984d3000884d30052
:100ac0008b05e8000442e800f7ff3a000700370012
:100ad0000804440089844c000000480081804800dc
:100ae0008b05e9000442e900f9ff3a003dff0700e9
:0c0af0004f05be004f04be0000000600d1
:020000040000fa
:100afc000400fa00889fbe00000f780011079800d0
:100b0c00c9e2a9005a000700300107004006200086
:100b1c006b0007001068ef000a00370010c8bf0018
:100b2c000080fb00800040002080200000804000fe
:100b3c008000eb000108780010c8bf000040e800fe
:100b4c0010e8b70010c8bf00e14f5000f3ff3600ab
:100b5c001068ef000a00370010c8bf000080fb00cf
:100b6c00818020004200dd00008140006000b80060
:100b7c000089be0010c8bf000040e80010e8b700b4
:100b8c0010c8bf00e14f5000f3ff3600104080004a
:100b9c002040880030408000104088008080200079
:100bac001000be00828020002001980031019800c6
:100bbc00104080008000eb0005ff0700a2e8280031
:100bcc0043de230057ff07000004be0020408000d6
:100bdc008000eb00fefe0700a2e8280043de2300a5
:100bec0050ff07000001be000800be0080fe070099
:100bfc000004be0080802000b00090002000900017
:100c0c00025d2d0063f4230046ff07000001be00c7
:100c1c000800be0075fe0700828020000089be001f
:100c2c00808020001000be00cefe0700000078007f
:100c3c00904088004800070000ccb3007400070007
:100c4c00904080004800de000040780070000700f3
:100c5c0090408000004078006d00070047000700be
:100c6c00803821000100200011010700c7ff370068
:100c7c000000fa0013e1a9001221a90091088000dc
:100c8c00f0fc2f0000806000900888007038210074
:100c9c00700888000a21ef009500a8008500a900c3
:100cac004105800080ff2f00008060005000b300e1
:100cbc004005880013e1a8000080fa00000006003f
:100ccc000200fa00889fbe00000f780090952d005e
:100cdc0001402300a0408800b14088001e0078002d
:100cec008000eb000001be008038210001002000d4
:100cfc0040ff0700b6fe07000004be00a0408000c5
:100d0c00b14080000268290083a9240005ff070078
:100d1c000001be000800be0034fe070002002000e7
:100d2c000300240031fe0700c0408800d140880039
:100d3c00c0408000d14080008afe0700000078008f
:100d4c00201088000762a90007e2a8004f04be002b
:100d5c000080fa00000006000000fa000602a8005d
:100d6c000000000030108000610060000000e00016
:100d7c00fcff3a000080fa00000006000000fa00b8
:100d8c000642a800000000003010800064006000e3
:100d9c000000e000fcff3a000080fa0000000600b2
:100dac000000fa000622a8000000000030108000ad
:100dbc00620060000000e000fcff3a000080fa00d6
:100dcc00000006000200fa00004f7800114798005e
:100ddc009e80fb00e00f2000808060001e40900091
:100dec000080fb00610060000100700010108800a2
:100dfc000000000041108000000024000080600012
:100e0c000000e000fbff3a000080fa000000060042
:100e1c000200fa00004f78001e80fb0010108800c2
:100e2c0000000000411080000000240000806000e1
:100e3c000000e000fbff3a000080fa000000060012
:100e4c000400fa00000f7800214798000080fa0097
:100e5c00000006000400fa00008fbe00401680005f
:100e6c000090a000401688002135800000fe2f0065
:100e7c00008060009000b300203588004016800090
:100e8c000080a100401688004136800000fe2f0033
:100e9c00008060003000b3004036880021e2a900d9
:100eac002002a9000111800090ff2f00008060003b
:100ebc00001188002062a9001e01be00404b2c00ce
:100ecc0041002000cbfe0700000078000000e90084
:100edc00401188002342a80011118000f0f32f006c
:100eec0000806000101188009560a8008560a90042
:100efc0041058000000027000100700040058800bb
:100f0c0021e2a8000080fa00000006000200fa00ae
:100f1c00004f78000000000011118000002020001c
:100f2c00008060000000e000fbff3a001e00fb00a8
:100f3c00201188000080fa00000006000400fa006e
:100f4c00100798009e009000010f780004003700f5
:100f5c001e007800104078001e0fe800ebff070021
:100f6c001e007800104078000004e000f8ff3a0002
:100f7c000080fa00000006000800fa001007980034
:100f8c0021079800320798000000eb00000f780052
:100f9c00070037002e00900010407800ae00900043
:100fac008100e80021079800d8ff07001e0fe80019
:100fbc009e0078003e009000808f5000f5ff3900b5
:100fcc003e0090000080fa00000006000000fa00cd
:100fdc006119800000fc2f000080600060198800ff
:100fec00001680003000b300001688004016800008
:100ffc00f000b3004016880021e3a9002143a800ab
:10100c0001198000f0cf2f000080600000198800cb
:10101c0001198000f0f12f00008060000060a0003a
:10102c00001988002023a90011198000f0ff21006d
:10103c00008060001019880011198000f0cf2f007b
:10104c00008060001019880028e3a90025e3a9009e
:10105c002463ef0021e3a8000080fa0000000600e2
:10106c000200fa00000f78001e00780000407800a3
:10107c007f4060000080fb007f0060004219800010
:10108c0001fe2f00810061000100700040198800f2
:10109c000000000000198000610060000000e0000a
:1010ac00fcff3200001880000080fa0000000600ef
:020000040000fa
:1010bc00f03fb1000180b10006003500ee030900dd
:1010cc0000000000403fb1000180b100fbff3d007b
:1010dc001000b000203fb000020035000080090075
:0810ec000000000000000600f6
:020000040000fa
:1010f40000080000140000000000000014080000b4
:0c110400080000000000000000000000d7
:020000040000fa
:0200000401f009
:04000000ffffff00ff
:020000040000fa
:0200000401f009
:04000800ffffff00f7
:020000040000fa
:0200000401f009
:04000c0002000000ee
:020000040000fa
:0200000401f009
:04001000a700000045
:020000040000fa
:0200000401f009
:040014005f00000089
:020000040000fa
:0200000401f009
:04001800f7000000ed
:020000040000fa
:0200000401f009
:04001c00dfff000002
:00000001FF
