:020000040000fa
:080000000002040000000000f2
:020000040000fa
:04000800c80200002a
:020000040000fa
:04000c00c802000026
:020000040000fa
:04001000c802000022
:020000040000fa
:04001400c80200001e
:020000040000fa
:04001800c80200001a
:020000040000fa
:04001c00c802000016
:020000040000fa
:04002000c802000012
:020000040000fa
:04002400c80200000e
:020000040000fa
:04002800c80200000a
:020000040000fa
:04002c00c802000006
:020000040000fa
:04003000c802000002
:020000040000fa
:04003400c8020000fe
:020000040000fa
:04003800c8020000fa
:020000040000fa
:04003c00c8020000f6
:020000040000fa
:04004000c8020000f2
:020000040000fa
:04004400c8020000ee
:020000040000fa
:04004800c8020000ea
:020000040000fa
:04004c00c8020000e6
:020000040000fa
:04005000c8020000e2
:020000040000fa
:04005400c8020000de
:020000040000fa
:04005800c8020000da
:020000040000fa
:04005c00c8020000d6
:020000040000fa
:04006000c8020000d2
:020000040000fa
:04006400c8020000ce
:020000040000fa
:04006800c8020000ca
:020000040000fa
:04006c00c8020000c6
:020000040000fa
:04007000c8020000c2
:020000040000fa
:04007400c8020000be
:020000040000fa
:04007800c8020000ba
:020000040000fa
:04007c00c8020000b6
:020000040000fa
:04008000c8020000b2
:020000040000fa
:04008400c8020000ae
:020000040000fa
:04008800c8020000aa
:020000040000fa
:04008c00c8020000a6
:020000040000fa
:04009000c8020000a2
:020000040000fa
:04009400c80200009e
:020000040000fa
:04009800c80200009a
:020000040000fa
:04009c00c802000096
:020000040000fa
:0400a000c802000092
:020000040000fa
:0400a400c80200008e
:020000040000fa
:0400a800c80200008a
:020000040000fa
:0400ac00c802000086
:020000040000fa
:0400b000c802000082
:020000040000fa
:0400b400c80200007e
:020000040000fa
:0400b800c80200007a
:020000040000fa
:0400bc00c802000076
:020000040000fa
:0400c000c802000072
:020000040000fa
:0400c400c80200006e
:020000040000fa
:0400c800c80200006a
:020000040000fa
:0400cc00c802000066
:020000040000fa
:0400d000c802000062
:020000040000fa
:0400d400c80200005e
:020000040000fa
:0400d800c80200005a
:020000040000fa
:0400dc00c802000056
:020000040000fa
:0400e000c802000052
:020000040000fa
:0400e400c80200004e
:020000040000fa
:0400e800c80200004a
:020000040000fa
:0400ec00c802000046
:020000040000fa
:0400f000c802000042
:020000040000fa
:0400f400c80200003e
:020000040000fa
:0400f800c80200003a
:020000040000fa
:0400fc00c802000036
:020000040000fa
:04010000c802000031
:020000040000fa
:04010400c80200002d
:020000040000fa
:04010800c802000029
:020000040000fa
:04010c00c802000025
:020000040000fa
:04011000c802000021
:020000040000fa
:04011400c80200001d
:020000040000fa
:04011800c802000019
:020000040000fa
:04011c00c802000015
:020000040000fa
:04012000c802000011
:020000040000fa
:04012400c80200000d
:020000040000fa
:04012800c802000009
:020000040000fa
:04012c00c802000005
:020000040000fa
:04013000c802000001
:020000040000fa
:04013400c8020000fd
:020000040000fa
:04013800c8020000f9
:020000040000fa
:04013c00c8020000f5
:020000040000fa
:04014000c8020000f1
:020000040000fa
:04014400c8020000ed
:020000040000fa
:04014800c8020000e9
:020000040000fa
:04014c00c8020000e5
:020000040000fa
:04015000c8020000e1
:020000040000fa
:04020800c802000028
:020000040000fa
:04020c00c802000024
:020000040000fa
:04021000c802000020
:020000040000fa
:04021400c80200001c
:020000040000fa
:04021800c802000018
:020000040000fa
:04021c00c802000014
:020000040000fa
:04022000c802000010
:020000040000fa
:04022400c80200000c
:020000040000fa
:04022800c802000008
:020000040000fa
:04022c00c802000004
:020000040000fa
:04023000c802000000
:020000040000fa
:04023400c8020000fc
:020000040000fa
:04023800c8020000f8
:020000040000fa
:04023c00c8020000f4
:020000040000fa
:04024000c8020000f0
:020000040000fa
:04024400c8020000ec
:020000040000fa
:04024800c8020000e8
:020000040000fa
:04024c00c8020000e4
:020000040000fa
:04025000c8020000e0
:020000040000fa
:04025400c8020000dc
:020000040000fa
:04025800c8020000d8
:020000040000fa
:04025c00c8020000d4
:020000040000fa
:04026000c8020000d0
:020000040000fa
:04026400c8020000cc
:020000040000fa
:04026800c8020000c8
:020000040000fa
:04026c00c8020000c4
:020000040000fa
:04027000c8020000c0
:020000040000fa
:04027400c8020000bc
:020000040000fa
:04027800c8020000b8
:020000040000fa
:04027c00c8020000b4
:020000040000fa
:04028000c8020000b0
:020000040000fa
:04028400c8020000ac
:020000040000fa
:04028800c8020000a8
:020000040000fa
:04028c00c8020000a4
:020000040000fa
:04029000c8020000a0
:020000040000fa
:04029400c80200009c
:020000040000fa
:04029800c802000098
:020000040000fa
:04029c00c802000094
:020000040000fa
:0402a000c802000090
:020000040000fa
:0402a400c80200008c
:020000040000fa
:0402a800c802000088
:020000040000fa
:0402ac00c802000084
:020000040000fa
:0402b000c802000080
:020000040000fa
:0402b400c80200007c
:020000040000fa
:0402b800c802000078
:020000040000fa
:0402bc00c802000074
:020000040000fa
:0402c000c802000070
:020000040000fa
:0402c400c80200006c
:020000040000fa
:0402c800c802000068
:020000040000fa
:0402cc00c802000064
:020000040000fa
:0402d000c802000060
:020000040000fa
:0402d400c80200005c
:020000040000fa
:0402d800c802000058
:020000040000fa
:0402dc00c802000054
:020000040000fa
:0402e000c802000050
:020000040000fa
:0402e400c80200004c
:020000040000fa
:0402e800c802000048
:020000040000fa
:0402ec00c802000044
:020000040000fa
:0402f000c802000040
:020000040000fa
:0402f400c80200003c
:020000040000fa
:0402f800c802000038
:020000040000fa
:0402fc00c802000034
:020000040000fa
:04030000c80200002f
:020000040000fa
:04030400c80200002b
:020000040000fa
:04030800c802000027
:020000040000fa
:04030c00c802000023
:020000040000fa
:04031000c80200001f
:020000040000fa
:04031400c80200001b
:020000040000fa
:04031800c802000017
:020000040000fa
:04031c00c802000013
:020000040000fa
:04032000c80200000f
:020000040000fa
:04032400c80200000b
:020000040000fa
:04032800c802000007
:020000040000fa
:04032c00c802000003
:020000040000fa
:04033000c8020000ff
:020000040000fa
:04033400c8020000fb
:020000040000fa
:04033800c8020000f7
:020000040000fa
:04033c00c8020000f3
:020000040000fa
:04034000c8020000ef
:020000040000fa
:04034400c8020000eb
:020000040000fa
:04034800c8020000e7
:020000040000fa
:04034c00c8020000e3
:020000040000fa
:04035000c8020000df
:020000040000fa
:100400004f8120000eff20000e0188000000000038
:10041000000020000000e000020032000001200087
:1004200020028800140007005b0007000000e000c5
:1004300003003a00c06620000100200002003700df
:100440000000200001002000810f70000100320038
:1004500014000700000020000000e000020032004d
:1004600000000200000000001a0602000000000068
:100470000040da000000fe004440a9000000200017
:100480000000e0000300320000002000a00188000e
:100490004440a800000006008a1f78008b1f7800e7
:1004a0000000060091018800800478000000eb0045
:1004b0001a003700e284440032a0b4009905ba0063
:1004c000e284440032a0b4009906ba00e2844400f9
:1004d00032a0b4000006eb00476fde00fd07b2005b
:1004e000636ce10003003a00ebff07000000eb0043
:1004f0000a003700606ce10004003a00005deb0088
:100500008b05e900fdff3e00040037006168e10053
:10051000010032000086eb000b00070019c7ba008b
:100520001905ba000e04e00003003a000a00e000da
:10053000e0ff3a0000000600fe07b2009e018800be
:100540008a047800f5ff3700395dba008b05e900b1
:100550000c003200295dba008b05e900080032006a
:100560000c00e00003003a00e284440032a0b40032
:10057000f5ff370019ddba008b05e900faff3a00f4
:100580008904e800e184440032a0b40000000600c1
:100590000040da000000fe000000050003f0a200a9
:1005a000889fbe008a9fbe008c1f7800b1000700a4
:1005b000b80033006450e1004f0032006420e100d5
:1005c0005200320003826c0007003b000905d00096
:1005d0000306d000820f54000c065d0002003900b3
:1005e00002003200890178000306780085825500f8
:1005f00004003d000003fd008103fd008502ea00c8
:100600008b854200840f720002003b0060001000e6
:10061000e08018006011b8000005eb007a28e100c6
:100620000a00390006007800c75ddd00f707b20058
:10063000878075002d003700828171000a017800e3
:10064000610560008180d1000080d3008502e9004f
:10065000f9ff3b00060440008784480002003b008d
:1006600060041400e0841c000988a3000700320025
:100670008a81710082817100610164008904d10066
:100680000884d3008b05e800170037000978a30021
:1006900013003a000b00e000130034008b05e90062
:1006a0000804440089844c000a4474000978a300bb
:1006b0000d003a000b00e000070034008b05e90054
:1006c0000804440089844c0001003a000b0020001b
:1006d0000978a300f7ff32000001eb0002003700a9
:1006e000828171000a017800270007000cf0a70042
:1006f00001f0a000700037006420e10002003a0021
:10070000838f6c00700033000801be000200be0041
:10071000690037000001be00410007000470a70017
:1007200003f0a10003f8a30013003a006509b1002b
:1007300010003200090035006928e1000200350090
:1007400001002800000005000000400081804800f2
:100750008502e900fcff3a0000000600f88f420025
:10076000050035008100d1000080d3008502e8003b
:10077000fcff3a00000006008000eb0000000500ce
:100780006011b8009700370081002000618055009b
:100790000b003d000b00200061fe2f000100e10076
:1007a0001d00340082817100610164008904d10060
:1007b0000884d3000000e800faff3a00710020002e
:1007c0006100640003007000020060000900320054
:1007d00061044400e0844c000988a5000500320053
:1007e0008b05e8006808e10002003a008904d100a6
:1007f0000884d300f20f20000258e10005003d00fc
:10080000c75ddd00f907b200898075000800780037
:10081000000006000bf827008b00780000000500a0
:10082000c70ade00f107b200f50fb200080032007f
:10083000e1cf4200020032000170a0002400050058
:10084000810f70000100320004080500440005001b
:10085000810f700002003a00140005008502e900d3
:100860000000400081c04800fcff3b000170a00078
:10087000240005000004be00e9ff07000003be00dd
:100880000405be000200be00e5ff0700844f7500ae
:10089000000006000200be006450e10005003600c2
:1008a0006420e100020036000968a30001003a005c
:1008b0000800be000160a0004f0678004f05be0092
:1008c0004f04be0000000600f0ff2f00f1ff2700dc
:1008d000f9ff3700889fbe008a9fbe008c1f7800fa
:1008e000e4ff0700ebff330003866c006450e10077
:1008f000240032006420e100270032006150e10052
:10090000220032006120e100210032008b8542008c
:10091000eb07b1000134b800003ab8000804420007
:1009200089844a00013ab8000030b800888040004d
:1009300009014a00040033000000400081804800a3
:10094000020149008b05e900c909dd00830170003f
:100950000100320013002000c814de004814dd003e
:100960004709de001200b200c808de0008847000eb
:1009700085ff070001f0a1000cf0a70001f0a00026
:10098000cdff37006120e100cfff32000801be003b
:100990000200be00f7ff37006150e100fcff3a00a3
:1009a000c9ff37006022b800060220000000d00016
:1009b0008180d2000482d2008582d2000000a00093
:1009c0000202520083825a000300310002024200f8
:1009d00083824a000000a1000603e900f3ff3a0009
:1009e00000000600889fbe008a9fbe000082700043
:1009f0000402710004827100260032000004be006f
:100a00000200be006011b8006b09200095022000b2
:100a10000182cf000a0039000541b1000082cf00f9
:100a2000070039000541b1000982cf0004003900f8
:100a30000541b1000882cf00010039000541b10035
:100a400005425200120032000a003b008281710010
:100a5000610164008100d1000080d3008984d3004b
:100a60000884d3008b05e8000442e800f7ff3a0051
:100a7000070037000804440089844c000000480047
:100a8000818048008b05e9000442e900f9ff3a0043
:100a90003dff07004f05be004f04be0000000600ea
:020000040000fa
:100aa0000200fa00889fbe00000f780090952d008c
:100ab0000140230050408800614088001e007800fb
:100ac0008000eb000001be00803821000100200002
:100ad000b4ff07002aff07000004be00504080005a
:100ae000614080000268290083a9240079ff070083
:100af0000001be000800be00a8fe070002002000a2
:100b000003002400a5fe0700704088008140880093
:100b10007040800081408000fefe070000007800e9
:100b2000201088000762a90007e2a8004f04be0059
:100b30000080fa00000006000000fa000602a8008b
:100b40000000000030108000610060000000e00044
:100b5000fcff3a000080fa00000006000000fa00e6
:100b60000642a80000000000301080006400600011
:100b70000000e000fcff3a000080fa0000000600e0
:100b80000000fa000622a8000000000030108000db
:100b9000620060000000e000fcff3a000080fa0004
:100ba000000006000200fa00004f7800114798008c
:100bb0009e80fb00e00f2000808060001e409000bf
:100bc0000080fb00610060000100700010108800d0
:100bd0000000000041108000000024000080600040
:100be0000000e000fbff3a000080fa000000060071
:100bf0000200fa00004f78001e80fb0010108800f1
:100c0000000000004110800000002400008060000f
:100c10000000e000fbff3a000080fa000000060040
:100c20000400fa00000f7800214798000080fa00c5
:100c3000000006000400fa00000f78001107980079
:100c40004006200096ff07001228ef001000370032
:100c5000b9ff07008040eb0000c4b300d1ff0700dc
:100c6000914080000080200000804000104078000b
:100c7000dfff0700b9ff070000362e0061012000ea
:100c800007000700904080000000e80090408800c6
:100c900090408000e90f5000edff3400eaff37007c
:020000040000fa
:100ca000f03fb1000180b10006003500ee030900fd
:100cb00000000000403fb1000180b100fbff3d009b
:100cc0001000b000203fb000020035000080090095
:080cd000000000000000060016
:020000040000fa
:100cd80012080000020000000000000000080000e8
:100ce8000a00000002000000c0f9a400b0999200b8
:100cf80082f88000900000000a0800000800000048
:080d08000000000000000000e3
:020000040000fa
:0200000401f009
:04000000ffffff00ff
:020000040000fa
:0200000401f009
:04000800ffffff00f7
:020000040000fa
:0200000401f009
:04000c00820000006e
:020000040000fa
:0200000401f009
:04001000a600000046
:020000040000fa
:0200000401f009
:040014005f00000089
:020000040000fa
:0200000401f009
:04001800f7000000ed
:020000040000fa
:0200000401f009
:04001c00dfff000002
:00000001FF
